:020000040800F2
:100000001841002045010008E1440008AB34000815
:100010007D4400080D0D0008195D00080000000077
:100020000000000000000000000000009D4B0008E0
:100030002B20000800000000954A00085D580008C9
:100040005F0100085F0100085F0100085F01000810
:100050005F0100085F0100085F0100085F01000800
:100060005F0100085F0100085F0100085F010008F0
:10007000B91F0008C51F0008D11F0008DD1F0008B8
:10008000E91F0008F51F00085F0100085D5C00081B
:10009000855C00085F0100085F0100085F0100083F
:1000A0005F0100085F0100085F0100085F010008B0
:1000B0005F0100085F0100085F0100085F010008A0
:1000C0005F0100085F0100085F0100085F01000890
:1000D0005F010008B55B0008095C00085F010008CB
:1000E0005F0100085F0100085F0100085F01000870
:1000F0005F0100085F0100085F0100085F01000860
:100100005F0100085F0100085F0100085F0100084F
:100110005F0100085F0100085F0100085F0100083F
:100120005F0100085F0100085F0100085F0100082F
:10013000DFF80CD000F066FA00480047E97C0008C0
:10014000184100200648804706480047FEE7FEE7C2
:10015000FEE7FEE7FEE7FEE7FEE7FEE7FEE7FEE777
:10016000815800083101000840EA01039B0703D0D1
:1001700009E008C9121F08C0042AFAD203E011F8E6
:10018000013B00F8013B521EF9D27047D2B201E0A8
:1001900000F8012B491EFBD270470022F6E710B58C
:1001A00013460A4604461946FFF7F0FF204610BDE5
:1001B00030B505462A460B4612F8010B13F8014BE1
:1001C00008B1A042F8D01CB1002802D06D1CF1E7A4
:1001D000284630BD421C10F8011B0029FBD1801AB3
:1001E000704730B504460020034600E05B1C934294
:1001F00003D2E05CCD5C401BF8D030BD034611F863
:10020000012B00F8012B002AF9D1184670470FB4D2
:1002100000B589B00CA900916A460B9900F08AF9E3
:1002200009B05DF814FB2DE9FF5FD2E901A74FF09B
:100230000008916999461446DDF838B046460198A1
:100240008847054659EA0B0005D009E0A169761CEC
:10025000019888470546216A284688470028F5D135
:10026000681C03D05FEACA7005D015E04FF0FF307C
:1002700004B0BDE8F09F2068011D2160D0F8008027
:100280000AE05FEACA7001D108F8015BA169761C37
:100290007F1E019888470546002F1ADD681C18D07C
:1002A000B9F1000F0DD0E81705EBD060421120F036
:1002B0001F0059F822102A1A012090400142E0D173
:1002C00007E0BBF1000FDCD1216A284688470028EF
:1002D000D7D0E16901988847BBF1000F07D1002E04
:1002E00005DD5FEACA7002D1002188F80010A0681D
:1002F000B84203DDBBF1000F03D017B16FF001006E
:10030000B6E73046B4E72DE9FE4F81EA030404F076
:10031000004421F0004100944FF0000B23F0004313
:1003200050EA01045ED052EA03045BD0C3F30A54DE
:10033000C1F30A552C44A4F2F3340194A0FB0254F7
:10034000C1F3130141F48011C3F3130343F4801389
:1003500001FB024400FB034E840A970A44EA8154DD
:1003600047EA8357A4FB076802958D0A05FB0785BA
:100370004FEA932C04FB0C542705029D4FEA0658C4
:1003800047EA1637B5EB08056EEB070C870E920EA1
:1003900047EA811742EA8312A7FB0201B6EB0B0181
:1003A00064EB00042B0D43EA0C335E1844EB1C5045
:1003B000DA465146E7FB0201C5F313044FEA0B335B
:1003C00043EA14534FEA0432019C43EA0603A4F1C2
:1003D0000C040294009CCDE900B400F0C4F803B012
:1003E000BDE8F08F00200146F9E72DE9F04D81EAE4
:1003F000030404F0004B21F0004514464FF0000ABE
:1004000023F0004150EA050220D054EA01021DD039
:10041000C5F30A570246C5F31303C1F31300C1F332
:100420000A5640F4801543F48013A7EB0608101B0E
:10043000D64608F2FD3873EB050002D308F1010837
:1004400001E092185B41B8F1000F03DA0020014689
:10045000BDE8F08D00204FF48011064684460EE082
:10046000171B73EB050705D3121B63EB050306434C
:100470004CEA010C49084FEA300092185B4150EAFF
:100480000107EDD152EA030012D082EA040083EAA8
:100490000501084305D0101BAB4106D20122002301
:1004A00006E000224FF0004302E06FF0010253101B
:1004B0001AEB06004CEB085110EB0A0041EB0B0164
:1004C000BDE8F04D00F040B80EB540F23341029166
:1004D0000021CDE900110A460B4600F044F803B0B4
:1004E00000BDC1F30A5210B5C1F3130140F2FF334E
:1004F00041F480119A4201DA002010BD40F23343EA
:100500009A42A2F2334203DC524200F003F810BDDB
:10051000904010BD202A04DB203A21FA02F000218D
:10052000704721FA02F3D040C2F120029140084303
:1005300019467047024B9361024BD36100F0A0B89B
:10054000290600084506000810B5141E73F10004C2
:1005500008DA401C41F1000192185B411A4301D1B5
:1005600020F0010010BD2DE9F04D92469B4611B1DF
:10057000B1FA81F202E0B0FA80F22032904600F047
:1005800069F804460F4640EA0A0041EA0B01534667
:100590005A46084313D0114653EA010019D0C8F156
:1005A00040025046FFF7B6FF05460E4650465946F4
:1005B000424600F04FF8084305D0012004E02046F1
:1005C0003946BDE8F08D0020054346EAE0762C432D
:1005D00037430A986305E40AA0EB08000022FD0AED
:1005E00044EA47540A3002D500200146E9E70105F4
:1005F00010196941DDE9084500196941BDE8F04D70
:10060000A2E70000064C074D06E0E06840F0010359
:1006100094E8070098471034AC42F6D3FFF78CFDFE
:10062000A8CC0008C8CC0008094910B508784C1CB3
:1006300018B1401E0870205C10BD00210720ABBE21
:10064000207010BD02490878421C0A7070470000F3
:10065000E0030020202A04DB203A00FA02F1002007
:1006600070479140C2F1200320FA03F319439040F0
:100670007047000002681144137801601846704703
:10068000D160044951610449116200211161114690
:1006900000F00AB8750600089D060008C0B24FF4C5
:1006A000F05100F097B900002DE9F34F8BB04FF0F7
:1006B000000801F10C000C464FF0010B46460DF10D
:1006C000080A01906269012101989047051E2DD00A
:1006D000252D2CD0216A8847C0B16269012101987B
:1006E0009047216A88470028F7D1411E6269019826
:1006F000904700E0761CA1690B988847216A8847DB
:100700000028F7D1E1690B988847DBE7A1690B98CE
:1007100088470746A84201D1761CD3E7E1690B98C8
:1007200088477F1C02D1B8F1000F6FD046E1002747
:1007300062693D463946019890472A2804D162698A
:100740000121019890470125DFF884926269012117
:1007500001989047A0F130010A290AD24F45E5DC03
:1007600007EB870100EB4107303FDFD445F0100570
:10077000ECE7E90601D46FF000476C280AD04C285A
:1007800014D0682815D06A280DD074281CD07A2877
:100790001AD01DE062690121019890476C2802D0AF
:1007A00045F0040514E045F002050DE045F0200594
:1007B0000AE06269012101989047682802D045F05B
:1007C000080505E045F4006562690121019890473C
:1007D000C4E9015765283DD019DC58287AD00CDCD3
:1007E000452837D004DC252826D0412831D131E0F6
:1007F00046282FD047282CD12CE05B2877D06128C1
:1008000028D063287CD0642823D15AE0D0E06F2818
:1008100048D008DC66281DD067281BD0692821D065
:100820006E2816D127E0702845D0732868D0752827
:1008300047D078280DD14DE0A1690B98884705462F
:1008400025283FF469AFE1690B9888476D1C3FF498
:100850006AAFB3E023466A466FF001000B99AFF32D
:1008600000809EE045F040006060A80723464FF0FE
:10087000000236D43EE0E8077FF447AF2068011D50
:1008800021600068290501D506701BE7290701D5FD
:10089000068017E7A90703D5F117C0E9006111E742
:1008A00006600FE745F040006060A80723464FF060
:1008B000080216D41EE040F60E0125EA0100606031
:1008C00016E045F040006060A80723464FF00A029A
:1008D00007D40FE045F040006060A80708D5234624
:1008E00010226FF001000B99AFF3008059E007E090
:1008F000234610226FF001000B99AFF3008050E007
:100900004FF000094F464B46632802D05B2806D0C3
:1009100040E0E80601D40120A06001273AE06269C6
:100920000121019890475E2805D14FF001096269C5
:10093000494601989047216939B900210A46534632
:1009400043F82120491C0829FADBB0B3216969B9B1
:10095000C11700EBD16253110AEB830122F01F0291
:10096000821A01200B68904003430B6062690121E9
:10097000019890475D28E8D1B9F1000F09D0002017
:10098000514651F82020D24341F82020401C08282D
:10099000F7DB02AB224600976FF001000B99FFF7DF
:1009A00042FC00280CDA401C08D1BBF1000F05D036
:1009B0004FF0FF300DB0BDE8F08FFFE74046F9E79C
:1009C000E90701D108F1010806444FF0000B79E670
:1009D000CCCCCC0C7F2801D9002208E0064A02EBDF
:1009E0005002C007127800D1120902F00F02012054
:1009F00090400840704700001CCC000870B58C186F
:100A000010F8015B15F0070301D110F8013B2A1122
:100A100006D110F8012B03E010F8016B01F8016B0F
:100A20005B1EF9D12B0705D40023521E0DD401F80B
:100A3000013BFAE710F8013BCB1A921C03E013F8D4
:100A4000015B01F8015B521EF9D5A142D8D3002009
:100A500070BD00002DE9FC5F07F0FEFF0826734D16
:100A60000124002875D0082371A2182100200094C9
:100A700003F004FFCDE900640423A846EA781821B6
:100A80006E2003F0BFFEA878DFF8B491012803D0F0
:100A900099F80000092830D16A4FDFF8ACA1387806
:100AA00000EB80010AEB810068A1FFF781FB684E33
:100AB0000025002856D03878012200EB80010AEB8F
:100AC0008101644806F048FB28B103F00BFD0823C0
:100AD00061A2009454E0387800EB80010AEB8100B9
:100AE00061A102F005FD50B103F0FCFC082361A2F6
:100AF00010210094002003F0C1FEBDE8FC9F03F02C
:100B0000F1FC00224FF400515C4802F031F8A3469A
:100B10005B4C00274FF0230A07EB470004EB8002F1
:100B20000AEB4000C0B20C231021CDF800B003F056
:100B3000C5FE7F1CFFB2082FEED34C464AA001F041
:100B400047FC38B107F088FF0028D6D088F802505B
:100B5000D3E75CE02078012855D007F07DFF00281E
:100B6000ECD148E03878BB4600EB80010AEB81010C
:100B70000122384806F0F0FA70B1082341A200942F
:100B80001021002003F07AFE02B00122BDE8F05FE0
:100B900051033A4801F0ECBF03F0A4FC00224FF4EB
:100BA0000051364801F0E4FF002723240120009083
:100BB000334907EB470001EB800204EB4000C0B271
:100BC0000C23102103F07AFE7F1CFFB2082FEDD317
:100BD0004C4657469BF8000000EB800007EB800076
:100BE00001F0F6FB0028ADD1207801280BD007F0EA
:100BF00033FF0028EED103F075FC2570052030701E
:100C0000022070709EE72570357075709AE7AC70A1
:100C1000CDE900640423EA7818216E2003F0F2FD88
:100C200008231CA21821009464E70000080000209B
:100C3000436F6E6E656374656421212100000000BE
:100C40003000002031000020041F002048455800DB
:100C500034000020E40300204F70656E20484558A2
:100C6000206661696C65640077726974652E6269DB
:100C70006E0000004572726F722121000010014069
:100C800000A200084F70656E2042696E206661699F
:100C90006C656400446973636F6E6E65637465644C
:100CA00000000000704700000149012008707047F3
:100CB00030000020064810B54178012903D00021FA
:100CC0000170417010BD012080F3138805F01AFAFD
:100CD00034000020704770470149022008707047B7
:100CE00030000020014909200870704730000020C2
:100CF000704770470149032008707047300000209A
:100D0000012080F3138805F0FDF97047FEE700002D
:100D1000072903D000EB8100826270475FF0000179
:100D200000EB8103491CC9B29A620729F8D37047C6
:100D30002DE9F0410C4605461F4616465021204637
:100D4000FFF72BFA201D29462022002511F8013B30
:100D500000F8013B33B3521EF8D100BF14F8240F42
:100D600020F00F00093020F0F000903020700920B2
:100D7000A07044F8246C607867F301006070B0479D
:100D800014F8011F60F3830104F8251B074804F8D9
:100D9000025B416844F84C194460BDE8F08100BF33
:100DA00000F8015B521EFBD1D8E700003C00002098
:100DB00070B5044600688047694E0025707094F84D
:100DC0002510C1F38102824228D094F84A20521C97
:100DD000D2B284F84A20022A20D360F3830184F837
:100DE000251084F84A5094F8240000F00F010929D6
:100DF00004D0022902D0010705D00FE020F00F0037
:100E000084F824000AE0317891B320F00F003570A7
:100E1000401C84F82400042084F8260094F8240060
:100E200010F00F0130D0012959D002291FD194F8B8
:100E30004910491CC9B284F849100F2917D320F072
:100E40000F00093020F0F000903084F824000009F1
:100E50000DD084F84950A16A09B12046884714F89A
:100E6000240F20F00F00093020F0F000207070BD3A
:100E7000FFE720F00F00401C84F82400E16A0029FD
:100E8000CCD020468847C9E794F82500C0F38101FB
:100E900000F003008142EAD184F8265094F84B0018
:100EA000401CC0B284F84B003228E0D394F84800CC
:100EB000401C10F0FF0084F8480008D084F8485027
:100EC000032084F82600616B09B12046884794F816
:100ED0004B00FF28CBD1322084F84B00C7E794F8B1
:100EE000261081B1032931D00429C0D120F00F0090
:100EF000093084F84B5020F0F000357010F14000BC
:100F000084F82400B3E794F849100F2912D802217D
:100F1000B1EB101F0ED184F82610216B09B12046C9
:100F2000884714F8240F20F00F00093020F0F0005B
:100F300090309BE720F00F0004F8495F801C20F000
:100F4000F000A570203004F8250C90E720F00F0089
:100F5000093084F84B5020F0F00035703030CFE786
:100F60003C0000201FB5002001904FF4E07000907D
:100F700001200290032003906946334801F0FCFCF5
:100F80000023324A324933A0FFF7D2FE334A002110
:100F90002F48FFF7BDFE324A02212D48FFF7B8FE69
:100FA000304A03212A48FFF7B3FE2F4A042128487C
:100FB000FFF7AEFE264900232C4A50312CA0FFF744
:100FC000B7FE23482C4A00215030FFF7A1FE2048ED
:100FD0002A4A02215030FFF79BFE1D48284A032170
:100FE0005030FFF795FE1A48264A04215030FFF78B
:100FF0008FFE17490023244AA03124A0FFF798FE52
:101000001348244A0021A030FFF782FE1048224AEC
:101010000221A030FFF77CFE0D48204A0321A030BA
:10102000FFF776FE0A481E4A0421A030FFF770FE43
:10103000074801F00DFB0648503001F009FB044859
:10104000A03001F005FB1FBD000C0140994A0008CB
:1010500014210020427574746F6E3100A90C0008D1
:10106000A50C0008B50C0008D50C0008A54A00081E
:10107000427574746F6E3200D90C0008D70C0008EA
:10108000E50C0008F10C0008B14A000842757474C0
:101090006F6E3300F50C0008F30C0008010D00081A
:1010A0000B0D0008054810B5446803E02046FFF723
:1010B0007FFEE46C002CF9D110BD00003C00002044
:1010C0002DE9F04F87B0044605900020CDE90110CE
:1010D00001F10209C4490870C44914F8012B824681
:1010E000CA75897D80468A4270D214F8015B002D52
:1010F0006CD000BF14F8016BF10701D00B2100E0A8
:101100000A218B46B10775D5B8F1000F41D0B74819
:10111000DA4547890ED1F0060CD46946304602F014
:10112000FBFC022817D17F1E03D3AF4909780029A1
:10113000F3D004E1BAF10A0F03D00A20824602F08C
:1011400013FBDFF8A48269460E2002F0E5FC0228BA
:1011500004D04FF000080128EBD108E07F1E03D334
:1011600098F800100029EED04FF00008E7E0009951
:1011700089F80010009A09F10101120A01F8012B07
:10118000009A120C01F8012B009A120E01F8012BA3
:101190008946F10650D5E17854F8040B934F61F37A
:1011A0001F600490B88959460390DA4503D0084679
:1011B0008A4602F0D9FABB467F890021304602F008
:1011C000ABFC022803D0012808D108E0DDE07F1E37
:1011D000791C03D0844909780029EED0AFE0BBF830
:1011E0000A706946304602F097FC022803D00128B5
:1011F00018D107E041E07F1E14D37B49097800290C
:10120000EFD00FE0DBF81010009A1140049A9142E1
:1012100008D00399491E0391491C03D072490978EB
:101220000029DCD0DBF8102000990A4004998A429A
:1012300071D040F010006EE0B8F1000F75D1594642
:10124000DA4503D008468A4602F08EFA6748DFF88E
:1012500098B147890021304602F05EFC022802D096
:1012600001286CD106E07F1E69D39BF8001000298D
:10127000F0D064E04FF0010857E0B8F1000F2DD036
:10128000BAF10A0F03D00A20824602F06DFA5748DD
:10129000478969460E2002F03FFC022802D001284F
:1012A0004DD107E07F1E791C49D04F4909780029AC
:1012B000EFD044E0009889F80000009909F101009E
:1012C000090A00F8011B00994FF00008090C00F80A
:1012D000011B0099090E00F8011B8146E17854F8C2
:1012E000040B61F31F600090B10603D53F4908610C
:1012F00001201AE05946DA4503D008468A4602F032
:1013000033FA3A48DFF8E0B047896946304602F0E0
:1013100003FC022802D0012811D106E07F1E0ED363
:101320009BF800100029F0D009E00299491C0291B5
:101330002D49097819B96D1E7FF4DCAE09E045B17D
:1013400014F8011B8A0701D5C90600D5241D6D1E9E
:10135000F5E7012838D1BAF10A0F02D00A2002F0CD
:1013600003FA2248204EB8F1000F458921D0694682
:101370000E2002F0D1FB022802D0012824D105E082
:101380006D1E21D331780029F1D01DE0009989F834
:101390000010009A09F10101120A01F8012B009ACC
:1013A000120C01F8012B009A120E01F8012B89464C
:1013B0000AE000210E2002F0AFFB022804D16D1ECE
:1013C00002D331780029F4D0DDE901120A700199C5
:1013D000487001990598A9EB0101201A07B041EA6C
:1013E0000040BDE8F08F000044000020943700204A
:1013F0002DE9F84FDFF83C810027044638460D46BA
:1014000001F1030A88F800704B4914F8012BCA75E2
:10141000897D8A4222D234F8026B002E1ED014F845
:10142000019B5FEAC97001D00B2000E00A208346CF
:1014300002F09AF95FEA89705DD53F48448900213E
:10144000484602F069FB022802D0012869D134E045
:10145000641E66D398F800100029F0D061E03EB910
:10146000BBF10A0F02D00A2002F07EF94FF00E09FC
:10147000314844896946484602F04EFB022802D0B2
:1014800001284ED106E0641E4BD398F800100029C5
:10149000F0D046E000998AF80010009A0AF10101A4
:1014A000120A01F8012B009A120C01F8012B009A84
:1014B000120E01F8012B8A467F1C761ECFD230E037
:1014C000E17854F8040B61F31F6000901A48B0F8FB
:1014D0000A806946484602F01FFB022802D0012814
:1014E0001FD107E0B8F101081BD312490978002980
:1014F000EFD016E07F1C761EE2D2BBF10A0F02D0BD
:101500000A2002F031F90C480A4E448900210E20CD
:1015100002F002FB022804D1641E02D331780029B4
:10152000F4D02F70390A6970A870AAEB0500BDE8E5
:10153000F88F000044000020943700202DE9FF4779
:101540000278A2F180031F2B04D800F099F904B0AF
:10155000BDE8F08701F8012B0C4610F801CB0125FE
:101560000221FF23DFF8F0920027BC4A4FF001165A
:10157000BCF11E0F75D2DFE80CF00F3A4B5EF1F0B4
:10158000EF74EE6C757474747474797D97A5B3D729
:10159000ED747474747474AE0278611C0020062AB1
:1015A00021D006DC052A1ED2DFE802F01D1D1D1D1C
:1015B0000C00F02A0DD0FD2A15D0FE2A11D0FF2AEA
:1015C00011D109E0A64802680A6040684860082016
:1015D00009E01320087005E0402008704F700220D9
:1015E00001E00D700120207000F10210AFE70578D6
:1015F0009C4A4FF4005125B1012D02D023704E4674
:101600001FE14078C00701D0516128E0116126E058
:101610002746047834B1012C05D0022C07D00024D1
:101620003C700EE10124157003F0ECF9F8E711703D
:1016300003F09AF9F4E7177040F60360CDE900076C
:10164000CDE902716946884801F096F927702E4667
:10165000F7E0008800EBC000C000401EFDD12770FD
:10166000CDE7F5E0677027700E46EAE0214600F00E
:101670006FFB33E0C17800687C4E61F31F60002887
:101680006DD07B49884202D3557055600AE0794994
:1016900057700144B1FBF0F0022801D9801E00E030
:1016A000012050602770CCE010F8015B0DB94FF4B9
:1016B00080750146284603F0EFFEED1DE80827700F
:1016C000060458E0007800F00301491C1175C0F3CE
:1016D00080005075E6E7214600F0E2F80646B0E0EB
:1016E00004F8017B25460124264610F8017B16E00C
:1016F00010F8018B814601462A46404602F0BCF9AB
:1017000018F03F0000D14020C01DC1080C44641CEB
:1017100009EB01005FEA086201D50D440E447F1E0B
:10172000E6D264F31F468CE010F8015B002195754A
:101730000B460BE002EB030C10F8016B8CF8186001
:1017400002EB430C5B1CACF820103144AB42F1D3EC
:1017500000200CE012E077E053E033E027E024E0E3
:1017600013181B7EC91A02EB4003401C1986A842BD
:10177000F6D327702E0406F1011662E011780229D3
:1017800013D10078D075917D88420ED20E2001F0E1
:10179000EBFF02F007F927706070010AA170010CDD
:1017A000E170000E2071344E4BE0237049E0017867
:1017B0001172B0F801105181B0F8030090812770C8
:1017C0002E4E3EE012782146012A14D0022A15D06E
:1017D000421C12F8014B44B112F8013B9D0701D5A0
:1017E000DB0600D5121D641EF6D1101A0F7000041E
:1017F0004F70801C72E700F089F86FE7FFF760FC1C
:101800006CE705461078214601280BD002280DD040
:101810000F704F70A7700320E97889070AD540F44C
:1018200080260EE0284600F001FAF5E72846FFF78B
:10183000DFFDF1E7B5F801104FF4802202EB81469D
:10184000064306F1011082E6214600F085FB45E7DC
:1018500004F8013C30467AE601000200943700208B
:1018600022BE000800100140000C014001000400ED
:1018700080A81201FF5025020500010001000500AB
:1018800000784FF0011208701046704710B502F052
:101890001BFD02F0D5FCBDE8104002F087BD000042
:1018A0002DE9F047002201F8012B012510F8017BFA
:1018B0008A46A946044620E014F8016B16F03F0062
:1018C00000D14020C01D4FEAD008300608D50E4890
:1018D000016821F0F0010160016841F080010160C0
:1018E00052462146304603F05BF9300602D5C24429
:1018F000C14401E0444445446D1C7F1EDCD249EAEA
:101900000540BDE8F0870000040C01402DE9F04FD0
:1019100087B08B4601F1020904460590C1490020B9
:101920000290087001906578A41C8046002D6FD04D
:10193000DFF8F4A214F8016BB1076AD5B8F1000F13
:101940003BD0BAF80A7006F0110001280AD0DFF87F
:10195000D48269460E2003F065F9022812D04FF0B8
:10196000000805E06946304603F05CF9022802D021
:10197000012806D10FE07F1E03D3AA490978002968
:10198000F0D0FCE07F1E03D398F800100029E0D0CF
:101990004FF00008F3E0009989F80010009A09F16F
:1019A0000101120A01F8012B009A120C01F8012B17
:1019B000009A120E01F8012B8946F1064DD5E17807
:1019C00054F8040B61F31F600490BAF80C00039004
:1019D000F00712D0BAF80A700021304603F022F95D
:1019E000022802D0012807D107E07F1E791C03D00E
:1019F0008C4909780029EFD0C1E0BAF80A7069462D
:101A0000304603F00FF9022804D0012819D108E06C
:101A1000D5E060E07F1E14D3824909780029EED01A
:101A20000FE0DAF8102000990A4004998A4208D0A1
:101A30000399491E0391491C03D07A49097800296A
:101A4000DBD0DAF8102000990A4004998A4201D0CC
:101A500040F01000012816D13BE0BAF80A70F107F7
:101A600015D0B8F1000F34D10021304603F0DAF878
:101A7000022802D0012806D106E07F1E7FD36949E3
:101A800009780029F0D07AE04FF0010821E069469A
:101A9000304603F0C7F8022802D001286FD106E0D3
:101AA0007F1E6CD35F4909780029F0D067E0009968
:101AB00089F80010009A09F10101120A01F8012BBE
:101AC000009A120C01F8012B009A120E01F8012B5A
:101AD0008946002148E0B8F1000F25D0BAF80A7015
:101AE00069460E2003F09EF8022802D0012846D154
:101AF00006E07F1E43D34B4909780029F0D03EE031
:101B0000009889F80000009909F10100090A00F81D
:101B1000011B00994FF00008090C00F8011B009907
:101B2000090E00F8011B8146E17854F8040B61F3BB
:101B30001F600090B10603D5CAF81000012014E020
:101B4000BAF80A706946304603F06CF8022802D0F1
:101B5000012814D107E07F1E791C10D03149097883
:101B60000029EFD00BE0012101910299491C02915B
:101B70002C49097819B96D1E7FF4DCAE09E045B136
:101B800014F8011B8A0701D5C90600D5241D6D1E56
:101B9000F5E7012837D1B8F1000F24D0BAF80A5080
:101BA000204E69460E2003F03DF8022802D001289D
:101BB00029D105E06D1E26D331780029F1D022E02D
:101BC000009989F80010009A09F10101120A01F840
:101BD000012B009A120C01F8012B009A120E01F849
:101BE000012B89460FE0019969B1BAF80A500D4EF0
:101BF00000210E2003F016F8022804D16D1E02D336
:101C000031780029F4D002998BF800108BF801008C
:101C10000598A9EB0B01201A07B041EA0040BDE886
:101C2000F08F000044000020943700202DE9F84F89
:101C3000DFF814810027044638460D4601F1030AF7
:101C400088F80070B4F80160E41C002E73D014F81A
:101C5000019BDFF8F8B05FEA89715CD55FEAC97172
:101C60003CD0BBF80A400021484602F0DBFF0228C6
:101C700002D001285FD131E0641E5CD398F80010D7
:101C80000029F0D057E026B95FEAC97001D04FF0C3
:101C90000E09BBF80A406946484602F0C3FF022815
:101CA00002D0012847D106E0641E44D398F8001002
:101CB0000029F0D03FE000998AF80010009A0AF15C
:101CC0000101120A01F8012B009A120C01F8012BF4
:101CD000009A120E01F8012B8A467F1C761ED2D282
:101CE00029E0E17854F8040B61F31F600090BBF821
:101CF0000A806946484602F095FF022802D0012872
:101D000019D107E0B8F1010815D30F490978002966
:101D1000EFD010E07F1C761EE3D2BBF80A400A4EDB
:101D200000210E2002F07EFF022804D1641E02D39F
:101D300031780029F4D02F70390A6970A870AAEBA5
:101D40000500BDE8F88F0000440000209437002013
:101D50002DE9F0478A464179D0F80260447861F372
:101D60001F665B49057886B0E00701F1040206D0E2
:101D7000EB074FF4806001D0086000E01060A0071E
:101D800006D5AB074FF4007001D5086000E0106085
:101D900060074FF0010307D5A808C00701D04D48E0
:101DA00001E04C48001D036020064FF000072AD5D3
:101DB000E8095FEAC078DFF8209100970197029761
:101DC00003974FF400604FF0020C08D008600090B9
:101DD0006946CDF80CC0484600F0CEFD13E0106017
:101DE00000900DF10408112088E809106946484662
:101DF00000F0C2FD06F030FE38480490042204A929
:101E0000374807F059F933493148091F001FEEB32D
:101E1000344A964200D916460A22B6FBF2F6324BF5
:101E2000D3F804205FEAC47C05D0D0F800C0CCF31E
:101E3000802CAC4523D15FEA847C06D5D0F800C065
:101E4000CCF3402CBCEB550F19D15FEA447C06D58E
:101E5000D1F800C00CF0010CBCEB950F0FD15FEA7C
:101E6000846C02D55FEA551C09D15FEA046C0CD57D
:101E7000D0F800C0CCF3C02CBCEBD51F05D0D3F8F4
:101E800004C0ACEB020CB445CCD300E002E04FF050
:101E9000E022176102680368C2F38022C3F3402383
:101EA000096842EA430201F0010142EA810209495C
:101EB000083909680068C1F3400142EAC101C00A5B
:101EC00041EAC0108AF8000006B00848BDE8F08773
:101ED000100C014010080140000C01400400FA05FC
:101EE0000CED00E0C0C62D00001000E0010006006F
:101EF000174808B50021017041708A1E42600172C6
:101F000064224281818101220161027541758175DE
:101F10001048816941F004018161816901F0040187
:101F20000091816941F008018161816901F0080136
:101F30000091816941F010018161806900F0100019
:101F4000009002F011FDBDE8084002F05BBD00000A
:101F50009437002000100240F8B5044614480026CB
:101F60000D460278012A03D0FF21022A10D10AE08F
:101F70002179D4F8010061F31F60009069460020C8
:101F800002F050FE10E02278C275807D824201D3BB
:101F900029700AE0082001F0E7FB2179D4F801005C
:101FA00061F31F6002F00EF82E700248F8BD0000C9
:101FB0009437002001000500014800F0BBBB000081
:101FC00010250020014800F0B5BB0000CC24002003
:101FD000014800F0AFBB00000C230020014800F0D6
:101FE000A9BB000050230020014800F0A3BB000063
:101FF00094230020014800F09DBB0000D82300205E
:1020000030B590F840500124AC40C56B6C6004685A
:1020100063604368102B036803D099600068C26056
:1020200030BD9A600068C16030BD70472DE9F84F3F
:10203000524E534C002570794FF00108F0BB75707B
:10204000502104F11800FEF7A8F84EA14E4805F003
:1020500057F9E8B94D494C4805F037FA4B4FA4F50C
:10206000C87907F1090A0DE0787A40B396F90100C2
:1020700000EB800109EB81005146FEF7BFF8707854
:10208000401C70704149404805F01FFA0028EBD011
:1020900086F80580258165812022A2817821E18151
:1020A00025820821E174B2FBF1F1217184F81280DC
:1020B0003349257565751831314801E002E010E0BB
:1020C00002F07AF8307918B135712D4802F04CF8E9
:1020D0002F4F3878012849D002281ED003284AD132
:1020E00015E0274A002096F9011018324B4607E008
:1020F00000EB800703EB870742F82070401CC0B25A
:102100000F468842F4DB23A042F82700C0E702F024
:10211000E9F91B4802F07AF82DE002F0E3F986F8BD
:102120000480DFF8749000264FF01D0A06EB46008D
:1021300009EB80020AEB4000C0B20C231021CDF85D
:10214000008002F0BBFB761CF6B20A2EEED31349D8
:10215000E07908704FF4FA7000F0FCFB02F0C2F96D
:102160000F48052101700221417004E002F0BAF924
:10217000034802F032F83D70BDE8F88F08000020F7
:1021800094200020303A0000240600200C06002095
:10219000300000202600000060A20008310000206E
:1021A000340000202DE9F84F2E4F2F4C0025F879F0
:1021B0000126A0B9FE71258165812020A0817821AA
:1021C000E1810821B0FBF1F02582E1742071A67451
:1021D0002575657507F10C01204601F0EDFFB87912
:1021E00018B1BD71204801F0BFFFDFF8808098F87A
:1021F000000001282FD0022805D003282ED11A482C
:1022000002F004F82AE002F06DF9BE71DFF8609088
:1022100000274FF01D0A00BF07EB470009EB8002C3
:102220000AEB4000C0B20C231021009602F046FBDE
:102230007F1CFFB20A2FEFD30E49E07908704FF4EC
:10224000FA7000F087FB02F04DF90B480521017090
:102250000221417002E0044801F0BFFF88F80050FD
:10226000BDE8F88F08000020FC200020300000208E
:1022700060A2000854000020340000207CB5012436
:102280000825CDE90054002123462246084602F0E5
:10229000B9FA08231CA200211846009402F0EEFAB5
:1022A0001A4800941A4900780823C0EBC00051F87E
:1022B00030200021102002F0E1FACDE90054012382
:1022C00002220821002002F09DFA08230EA21946DE
:1022D0001846009402F0D2FA0E4800940E49007895
:1022E000082300EB800001EB80021946102002F069
:1022F000C5FA082309A210211E20009402F0BEFA9C
:10230000BDE87C4002F0C0B92E000000540000205F
:10231000C439002031000020041F00205374617272
:102320007420466C617368002DE9FC4101240C2780
:10233000CDE90074002123462246084602F062FAE5
:102340000C2320A200210820009402F097FA002517
:10235000DFF874805FF01E0605EB450008EB800295
:1023600006EB4000C0B20C230021009402F0A6FA54
:102370006D1CEDB20A2DEFD3CDE9007401230222CA
:102380000C21002002F03EFA0C230EA21946082070
:10239000009402F073FA0D4F002500BF05EB4500D5
:1023A00007EB800206EB40000C23C0B219460094F4
:1023B00002F084FA6D1CEDB20A2DEFD3BDE8FC41AA
:1023C00002F088B92E00000038A30008B0A300086E
:1023D0002DE9FE4F01460122874804F0BDFE8749E2
:1023E0000870E0B9864D012400262C7006F034FBFD
:1023F000002815D006F0B8FF88B906F09BFF70B929
:1024000006F0E0FF06F028FB002809D000F0B6FB3C
:102410000290E00606F020FF20B106F083FF0020C6
:10242000BDE8FE8F06F0FEFE0028F8D1DFF8C8B147
:102430004FF480674FF00C0A4FF47A79287800281F
:1024400054D06F4B3A460A336E496B4804F098FFFC
:102450006889B84201D20020287006F100603A462F
:102460006849804606F026FF0028D8D13A466649DA
:10247000404606F0F1FB3A4662496348FDF7B1FE7B
:1024800078B102F02FF80C2360A2082114200094E8
:1024900002F0F4F9484600F05DFA02F023F82C70DF
:1024A000A7E006F58066DBF80C00FEF70DF8804625
:1024B00030460091FEF708F84246009BFDF795FF75
:1024C0000022564BFDF71FFFFEF70BF8CDE900A4E5
:1024D000024603230021322002F094F90C2350A27B
:1024E00000214620009402F0C9F9A7E700F046FB5E
:1024F000064606F0B1FA002892D0E978A846491CB1
:10250000E9700298CDE900A4361AB6FBF9F2002171
:1025100055460223084602F075F90C2341A200211A
:102520000D20009402F0AAF94FF00A0AB6FBFAF067
:102530006427B0FBF7F107FB1102CDE90054022339
:102540000021122002F05EF90C2337A200211E2088
:10255000009402F093F9B6FBFAF0B0FBF7F207FB38
:102560001200B6FBF9F1B0FBF7F00844DBF80C10F1
:10257000CDE90054B1FBF0F2022300215A2002F011
:1025800041F90C2329A200216920009402F076F978
:102590004FF40051274800F0E4FA002006F0B8FBA1
:1025A000CDE90054032364220021322002F02AF9ED
:1025B0000C231BA200214620009402F05FF90025A5
:1025C0001D4E232705EB450006EB800207EB40007C
:1025D000C0B20C231021009402F070F96D1CEDB212
:1025E000082DEFD3484600F0B5F901F07BFF88F8DD
:1025F0000040012014E70000E40300200100002057
:1026000008000020040B0020041B0020566572699E
:102610006679204661696C64212100000000594000
:10262000250000002E000000530000004B622F73B5
:102630000000000000100140D8A2000880EA10400D
:1026400080EA10200149C0B2085C70472ABE000829
:1026500090F82600704710B590F82110002202294A
:1026600005D00421816380F82020012010BD01687D
:102670000B6823F00E030B6001680B6823F0010365
:102680000B6090F84030C46B012101FA03F36360E2
:1026900080F8211080F82020104610BD10B590F869
:1026A00021100024022903D00421816301243DE08C
:1026B00001680A6822F00E020A6001680A6822F0C6
:1026C00001020A601A4A0168914201D1012121E008
:1026D000174A1432914201D110211BE0144A2832CA
:1026E000914201D1891515E0114A3C32914201D144
:1026F00089140FE00E4A5032914202D14FF48031DA
:1027000008E00B4A6432914202D14FF4801101E09B
:102710004FF08071064A083A5160012180F821107B
:10272000002180F82010416B01B18847204610BD80
:10273000080002402DE9F05FC16B0C6801680B686E
:10274000D0F840C0042202FA0CF2494DDFF824A16F
:10275000494E4A4FDFF828B1DFF828E122422CD059
:102760005A072AD50A68920603D40A6822F004029E
:102770000A600168A94201D1042219E0514501D142
:10278000402215E0B14202D14FF4806210E0B9421C
:1027900002D14FF480420BE0594502D14FF4802220
:1027A00006E0714502D14FF4800201E04FF08062F3
:1027B0002F4908394A60C16A3BE04FF0020808FA25
:1027C0000CF818EA040F4FF000094FF0010235D061
:1027D0005FEA837832D50B689B0605D40B6823F03B
:1027E0000A030B6080F821200168A94201D102226E
:1027F00019E0514501D1202215E0B14202D14FF438
:10280000007210E0B94202D14FF400520BE059457A
:1028100002D14FF4003206E0714502D14FF40012AC
:1028200001E04FF00072124908394A6080F82090A8
:10283000816A00291AD0BDE8F05F0847082505FA2B
:102840000CF5254212D01B0710D50B6823F00E03A0
:102850000B6090F84010C36B02FA01F1596082637B
:1028600080F8212080F82090016BE2E7BDE8F09F1E
:10287000080002401C0002403000024044000240B8
:10288000580002406C00024030B528B308C8134914
:1028900014221944B1FBF2F18900C163104981632C
:1028A000022141771A6843F6F0718A43D0E9001497
:1028B0002143D0E902452C43214304692143446963
:1028C000214384692143114319600021416301229E
:1028D00042770177084630BD012030BDF8FFFDBFCB
:1028E0000000024070B5044690F820000025012841
:1028F0000CD0012084F8200094F821600020012EE3
:1029000006D084F820000225284670BD022070BD44
:10291000022684F82160A0632068066826F001067C
:1029200006602046FFF76CFBE06A0028206801681B
:1029300002D041F00E0106E021F0040101602068A0
:10294000016841F00A0101602068016841F001015D
:102950000160D9E770B5044600F010F90546601C27
:1029600002D004480078044400F008F9401BA0425B
:10297000FAD370BDCC0300202DE9F84FDFF8B891F1
:10298000002409F1040A0AF1040B23460F270BF176
:10299000040EC9E00125A5402A40AA427DD1674E18
:1029A000D1F804C0ACEB0608B44532D014DCBCF15D
:1029B000030F3AD009DCBCF1000F2AD0BCF1010FA3
:1029C0001CD0BCF1020F31D11DE0BCF1110F17D0AA
:1029D000BCF1120F2AD119E0B8F5881F19D006DC16
:1029E000B8F5803F15D0B8F5801F1FD111E0B8F5BC
:1029F000001F0ED0B8F5041F18D10AE0CB6815E00F
:102A0000CB681B1D12E0CB6808330FE0CB680C339A
:102A10000CE08B682BB1012B4FF0080303D045610C
:102A200004E0042302E0056100E00023FF2A01D84E
:102A3000064601E000F104064FEA840501D9A5F13C
:102A40002005D6F8008007FA05FC28EA0C0803FAEE
:102A500005F548EA0508C6F800804D68ED0062D526
:102A6000374DAE6946F00106AE61AD6924F003064C
:102A700005F001050095334D06EB050CDCF8085018
:102A8000A607360F07FA06F825EA0805DFF8B8802A
:102A9000404503D14FF0000817E044E0DFF8AC8078
:102AA000404502D14FF001080FE0DFF8A480404517
:102AB00002D14FF0020808E0DFF89880404502D1CB
:102AC0004FF0030801E04FF0040808FA06F848EA5E
:102AD0000508CCF808804D68D9F80060ED034D4634
:102AE00001D5164300E096432E604D68DAF8006089
:102AF000AD03554601D5164300E096432E604D6860
:102B0000DBF80060ED025D4601D5164300E0964318
:102B10002E604D68DEF80060AD02754601D51643A3
:102B200000E096432E60641C0D682A46E5407FF461
:102B300031AFBDE8F88F0000000401400000111023
:102B4000001002400000014000080140000C01405C
:102B500000100140001401408068084000D00120AE
:102B60007047C2680A4201D04161704701617047F5
:102B70000AB1016170470904FBE700000148806861
:102B800070470000CC03002002488168027811449D
:102B900081607047CC030020002809DB00F01F0291
:102BA000012191404009800000F1E020C0F80011AF
:102BB00070470000F0B40E4B1B680C46C3F30223B1
:102BC000C3F10705042D00D90425191D072901D2D9
:102BD000002300E0DB1E012606FA05F1491E214014
:102BE00099409E40761E16403143F0BC03F07ABAFD
:102BF0000CED00E00148006870470000C4030020AD
:102C00000448054900684968044AC1F30221515C3F
:102C1000C8407047C40300200010024088C000086C
:102C20000448054900684968044AC1F3C221515C5F
:102C3000C8407047C40300200010024088C000084C
:102C400070B5040005D00025A56294F8510010B1BC
:102C500006E0012070BD84F85050204600F02EF8A8
:102C6000022084F851002068016821F040010160D1
:102C7000D4E901010843D4E903121143084361690F
:102C80000843218B01F400710843E1690843216A7C
:102C90000843A16A084321680860A069042101EA89
:102CA0001040216848602068C16921F40061C16159
:102CB0006565012084F85100002070BDF0B585B035
:102CC000002400940194029403940646384D03684E
:102CD000384802210322AB4243D1836943F4805335
:102CE0008361836903F480530493836943F004038D
:102CF00083618069304D00F004000490A020CDE98C
:102D00000001039269462846FFF736FE4020CDE9D0
:102D10000004694628460294FFF72EFE284D2748F6
:102D2000802701C5102091C5254845F810496C61E0
:102D3000AC61EC61FFF7A8FDB5646E62204D1F48E1
:102D400044351438C5E90004C5E902472C616C61BB
:102D5000AC612846EC61FFF797FDF5646E6205B043
:102D6000F0BD184DAB42FAD1C36943F48043C3614F
:102D7000C36903F480430493836943F008038361C8
:102D80008069114D00F0080004904FF42040CDE917
:102D90000001039269462846FFF7EEFD4FF480409C
:102DA000CDE90004694628460294FFF7E5FDD6E721
:102DB0000030014000100240000801403000024095
:102DC000CC24002000380040000C01402DE9F84FD1
:102DD000044690F8500000270A9E1D4692468B46F6
:102DE0004FF0010901280ED0012084F85000FFF7B0
:102DF000C5FE804694F85100616801280CD0B1F5F9
:102E0000827F07D102E00220BDE8F88FA16809B9EE
:102E1000042801D00227C2E0BBF1000F27D0BAF18D
:102E2000000F24D01DB394F85100042802D00520CF
:102E300084F8510000206065C4F838A0E587A587B4
:102E4000C4F830B0E586A586206460642068016817
:102E5000490603D4016841F040010160E068B0F523
:102E6000006F606805D0E8B3012D46D07FE00127F0
:102E700095E008B1012D39D1206B21680088C86028
:102E8000206B801C2063E08E401EE0862EE02068D0
:102E9000816889070FD5E18E69B1B9F1010F0AD1B7
:102EA000216B0988C160206B801C2063E08E401E6E
:102EB000E0864FF0000920688168C9070CD0E18FD7
:102EC00051B1C068A16B0880A06B801CA063E08F2B
:102ED000401EE0874FF00109FFF750FEA0EB08000D
:102EE000B04200E009E001D3701C50D1E08E002810
:102EF000CDD1E08F0028CAD13FE0206B2168007857
:102F00000873206B401C2063E08E401EE0862EE09C
:102F10002068816889070FD5E18E69B1B9F1010F89
:102F20000AD1216B09780173206B401C2063E08E6D
:102F3000401EE0864FF0000920688168C9070CD068
:102F4000E18F51B1C068A16B0870A06B401CA063F9
:102F5000E08F401EE0874FF00109FFF70FFEA0EB66
:102F60000800B04202D3701C01D010E07EB1E08EA8
:102F70000028CDD1E08F0028CAD1424631462046F4
:102F800001F09EFD28B101272020606507E003279E
:102F900005E0A06818B92068C16880680090012029
:102FA00084F85100002084F8500038462CE710B512
:102FB000401EB0F1807F01D3012010BD4FF0E0240E
:102FC00060610F21601703F08DF80020A0610720D9
:102FD0002061002010BD10B504460068416994F8D6
:102FE0003920C1F3C011212A0BD151B1416921F01F
:102FF00080014161206B08B1FFF72DFB204602F0F4
:10300000C5FC2068416994F83A20C1F38011222A56
:103010000BD151B1416921F040014161606B08B1B0
:10302000FFF719FB204602F0A3FC002010BD7047FB
:1030300070B5026804461068D168536910F00F0F2C
:1030400050D003F0010501F4907635435DD0C207FE
:1030500005D0CA0503D5E26B42F00102E2634207E4
:1030600005D5DA0703D0E26B42F00202E263820781
:1030700005D5DA0703D0E26B42F00402E2630207EF
:1030800005D5DA0703D0E26B42F00802E263E26B97
:10309000002A33D0800604D5880602D5204602F0E7
:1030A0007EFC20684069E16BC0F38010090700D402
:1030B00028B3204602F05CFC2068416949061AD515
:1030C000416921F040014161606BA0B11B4941633E
:1030D000606BFFF7E3FA002810D0606B416BBDE82E
:1030E00070400847830610D58B060ED52046BDE8F4
:1030F000704002F054BC2046FFF799FF70BD204697
:10310000FFF795FF0020E06370BD030606D50B06B0
:1031100004D52046BDE8704002F0E8BC4006F3D577
:103120004806F1D5D168204621F04001D160202128
:1031300084F8391000F099F970BD0000D1580008EA
:1031400070B5040004D094F83900002510B106E0F1
:10315000012070BD84F83850204600F023F8242068
:1031600084F839002068C16821F40051C16020460C
:1031700002F060FC2068016921F49041016120683F
:10318000416921F02A0141612068C16841F4005180
:10319000C160E563202084F8390084F83A000020FB
:1031A00070BD00002DE9F04385B000240094019427
:1031B000029403940546DFF844C103685048022195
:1031C0000322504F80264FF0100863454FD183698A
:1031D00043F480438361836903F4804304938369E8
:1031E00043F0040383618069039200F004000490BB
:1031F0000802CDE9000169463846FFF7BDFBF00043
:10320000CDE90004694638460294FFF7B5FB3F4F0D
:103210003D484FF44059C7E902463C61E7E80508DC
:103220004FF0200887E810033848143FFFF72CFBC5
:103230002F637D62354F344844371430C7E90004AA
:10324000C7E9024607F114033C6183E810033846DE
:10325000FFF71AFB6F630022114625207D62FFF7FE
:10326000A9FC2520FFF798FC05B0BDE8F083DFF846
:10327000A0C06345F8D1C36943F40033C361C36997
:1032800003F400330493836943F00403836180698A
:10329000039200F0040004900420CDE90001694687
:1032A0003846FFF769FB0820CDE900046946384637
:1032B0000294FFF761FB154F134888372830C7E9A0
:1032C0000004C7E902463C617C61BC613846FC6190
:1032D000FFF7DAFA6F637D6244370B48C7E90246AD
:1032E0003C617C61BC613C30FC61C7E90008384648
:1032F000FFF7CAFA2F637D62B6E70000003801408D
:103300000010024000080140440002400C2300204D
:1033100000440040F8B5044690F83A0020283CD11B
:10332000C1B3BAB394F83800012836D0012084F82C
:103330003800A162A2850025E563222084F83A00C6
:10334000636B17489862636B1648D862636B1648C4
:103350001863606B134645630846666B2168024636
:103360003046091DFFF7BEFA2068016841680091E8
:1033700084F83850C16841F48071C16020684169A7
:1033800041F0010141612068416941F04001416122
:103390000020F8BDFFE70120FBE70220F9E700006D
:1033A0002B59000867590008E1580008704770471A
:1033B0002DE9F843044690F839001F4616460D469D
:1033C000202850D1A5B19EB194F8380001284AD0E8
:1033D000012084F838004FF00008C4F83C80212018
:1033E00084F83900FFF7CAFBA6848146E68426E00C
:1033F0000120BDE8F883E08C401EE084A0684B46C5
:10340000B0F5805F4FF000024FF08001204600973A
:1034100003D002F09CFBE8B90DE002F098FBC8B9BC
:1034200028882168C0F308004860206908B16D1C35
:1034300005E0AD1C03E0216815F8010B4860E08C45
:103440000028D8D14B46002240212046009702F0A8
:103450007EFB08B10320CCE7202084F8390084F8F3
:1034600038800020C5E70220C3E7704770B50178B7
:10347000012407290DD0084D2978002908D10146DB
:1034800040220648FCF770FE05492C704020086079
:1034900070BD0448047070BD02000020800A002046
:1034A000B8030020440000207047FEE770B50446D2
:1034B000007800F007F80007050E607800F002F8C9
:1034C000284370BDA0F13001092901D8C8B2704766
:1034D000A0F16101192901D8573804E0A0F1410198
:1034E000192902D83738C0B27047FF207047000052
:1034F000F0B5ADF2B47D04460DF2B4600D46CDF8E2
:10350000B00600264DA12046002000BF070020D0B5
:103510004BA12846002000BF05001ED00022114606
:1035200038464FF0FF30012221460DF2844003F06F
:1035300013FE132243A101A803F00EFE00F0D2FFF8
:10354000012000900C2342A20221142001F096F9E0
:1035500063E007200DF2B47DF0BD0820FAE78BAAE6
:103560003EA13846FCF753FE0DF2AC618BA800F08B
:1035700079F8040007D038464FF0FF3028464FF066
:10358000FF302046E6E79DF8AD0668B1012835D04A
:1035900002283BD004283DD038464FF0FF30284663
:1035A0004FF0FF300420D5E7BDF8AE0600228119A8
:1035B0000C4628464FF0FF30214601A803F054FA8C
:1035C000002406E0DDF8B00601A9005D03F0C9FEA5
:1035D000641C9DF8AC06A042F4D8C1B22B4601226F
:1035E000DDF8B00604F0AEF9012816D038464FF0E9
:1035F000FF3028464FF0FF300920ABE738464FF048
:10360000FF3028464FF0FF300020A3E7BDF8AE069C
:10361000860002E0BDF8AE0606043846002000BF72
:1036200000289CD001A803F010FA38464FF0FF3074
:1036300028464FF0FF300A208CE70000720000009F
:103640007762000077726974652E62696E0000000F
:10365000496E76657274696E6700000025730D0A05
:10366000000000002DE9F84F0E4680460025FCF7CB
:10367000B1FD80B2002440F20921884202D9012024
:10368000BDE8F88F0B2801D20220F9E798F8001066
:103690003A2901D00320F3E7C143C9073BD1401EBB
:1036A00000EBD070C0F34707EA464FF0010900BFB6
:1036B00009EB440080B24044FFF7F8FE0AF804002A
:1036C000641C2844A4B2C5B2042CF1D39DF80000B8
:1036D00030709DF801004FF6FF7101EA00209DF85F
:1036E0000210084470809DF8030070700DE000BF68
:1036F00009EB440080B24044FFF7D8FE211F7268F6
:10370000641CA4B250542844C5B2BC42F0D33078F3
:103710007F1FB84201D00520B2E70DB10620AFE708
:103720000020ADE71CB505F0E5FA00281BD09E206F
:103730008DF80000E7208DF801006946102001F0A7
:10374000ABFE05F0D7FA00280DD000208DF8000060
:103750006946082001F0A0FE01A9002005F05AFAF0
:10376000012800D000201CBD0349497809B100F0B0
:1037700005B800F063B80000943700202DE9F0434D
:103780002B4A4FF4007717601115131D1960116053
:10379000196011601F601960116019601160254E79
:1037A00001243460244D95F817C005EB4C09B9F895
:1037B00020501DB1196011606D1EFBD11E4D1835D2
:1037C0001CF80550DFF86CC00CF1040C0AE000BFD7
:1037D0005FEAC07801D0346001E0CCF800401960A5
:1037E000116040086D1EF3D1B9F830507DB1C007AB
:1037F00001D0346001E0CCF8004019601160346001
:1038000001E0196011606D1EFBD1176006E01760C2
:10381000C00701D0346001E0CCF8004019601160AD
:10382000196011601F60196011603460BDE8F08399
:10383000100C014010080140943700202DE9F0479A
:10384000554B4FF40078C3F800801A151C1D2260F8
:10385000524F79680D466D1EFDD11A600D466D1EE2
:10386000FDD122600D466D1EFDD11A600D466D1E04
:10387000FDD1C4F8008022600D466D1EFDD11A6096
:103880000D466D1EFDD122600D466D1EFDD11A60E4
:103890000D466D1EFDD1424E0125356097F817C0CB
:1038A00007EB4C0AE146BAF820C0BCF1000F0AD081
:1038B00022600F467F1EFDD11A600F467F1EFDD18C
:1038C000BCF1010CF4D1DFF8D4C00CF1180C19F8DC
:1038D0000CC0DFF8CC9009F104090EE0C70701D055
:1038E000356001E0C9F8005022600F467F1EFDD10F
:1038F0001A600F467F1EFDD14008BCF1010CEDD1CE
:10390000BAF8307027B3C00701D0356001E0C9F8BC
:10391000005022600846401EFDD11A600846401E35
:10392000FDD1356007E022600846401EFDD11A60D7
:103930000846401EFDD17F1EF5D1C3F800802260ED
:103940000846401EFDD11A600846401EFDD10FE01A
:10395000C3F80080C00701D0356001E0C9F800500D
:1039600022600846401EFDD11A600846401EFDD167
:1039700022600846401EFDD11A600846401EFDD157
:10398000C4F8008022600846401EFDD11A60491E1E
:10399000FDD13560BDE8F087100C01409437002060
:1039A00010080140F0B5314C4FF400762660221526
:1039B000231D1A602E4841680D466D1EFDD1226000
:1039C0000D466D1EFDD11E601A600D466D1EFDD1A7
:1039D00022600D466D1EFDD11A600D466D1EFDD193
:1039E00022600D466D1EFDD1C57D4DB11A600846A1
:1039F000401EFDD122600846401EFDD16D1EF5D14E
:103A00000027DFF870C01F251A600846401EFDD150
:103A1000DCF800002260C0F3400E0846401EFDD1D5
:103A200047EACE7047086D1EEED126601A60084640
:103A3000401EFDD1DCF800002260C0F340050846BE
:103A4000401EFDD147EAC5701A600D466D1EFDD1BE
:103A500022600D466D1EFDD11E601A600B465B1E76
:103A6000FDD12260491EFDD1F0BD0000100C0140C7
:103A700094370020080801402DE9F04F10F03F0571
:103A800000D14025DFF884A044064FF400734FF0C6
:103A9000010EAAF1040B4FF4806801D55C4600E0EA
:103AA000544623602EE000BF11F8016B00244FF054
:103AB000080C1FE0F307734601D0154F01E0144FC7
:103AC0003F1D3B60CAF80080124B5B681F467F1E9B
:103AD000FDD10F4F083F3F68CBF80080C7F3400986
:103AE0005B1EFDD1630876086D1E43EAC914BCF164
:103AF000010C01D0002DDDD124FA0CF4030601D510
:103B000002F8014B002DCFD1BDE8F08F140C01401D
:103B10001008014094370020034A52780AB100F09F
:103B200005B800F0D1B80000943700202DE9F04F1F
:103B3000624C4FF4007626602215231D1A60226025
:103B40001E601A6022601A6022605D4DED7D1DB11D
:103B50001A6022606D1EFBD14508DFF868B15FEA8C
:103B6000C57CABF104074FF0010501D03D6001E0D9
:103B7000CBF800501A60DFF84C81A8F10C08D8F897
:103B800000C0A246CCF3400C226084084FEA4C0CE3
:103B9000E40701D03D6001E0CBF800501A60D8F88E
:103BA0000040C146C4F34004CAF800204CEA040CAB
:103BB000C408E40701D03D6001E0CBF800501A6072
:103BC000D9F80040CE46C4F340085446CAF8002055
:103BD0004CEA880ABAF1010F01D026605BE0DFF8F9
:103BE000E0C05FEA80789CF816009CF817C0A0EB54
:103BF0000C092BD54FF000081F20F3461A60DBF8A4
:103C000000C022604FEA5C0C48EACC7C4FEA5C08BA
:103C1000401EF3D1B9F1010011D01A60DBF800C0E9
:103C2000CCF3400C00E01A602260401EFBD12660FD
:103C30001A60226048EACC7079B308602DE02660F3
:103C40001A60DBF80000C0F3400CF2E708681F219F
:103C50004FEA0B0C5FEAC07801D03D6001E0CCF880
:103C600000501A6022604008491EF3D1B9F10101E9
:103C70000AD0C00701D03D6001E0CCF800501A60C6
:103C80002260491EFBD1A8E72660C00701D03D6035
:103C900001E0CCF800501A6022601A6022601E60B9
:103CA0001A6022603D600648007A01E01A602260D6
:103CB000401EFBD25046BDE8F08F0000100C0140C2
:103CC00094370020140801402DE9F34FBA4B81B01E
:103CD0004FF400741C601A151F1D3A60DFF8DCC237
:103CE000DCF804100D466D1EFDD11A600D466D1EE8
:103CF000FDD13C603A600D466D1EFDD11A600D4647
:103D00006D1EFDD13A600D466D1EFDD11A600D4647
:103D10006D1EFDD19CF817604EB13A600D466D1EC8
:103D2000FDD11A600D466D1EFDD1761EF5D14508F8
:103D3000DFF88C925FEAC578A9F104064FF001051F
:103D400001D0356001E0C9F800509046BA463A60AB
:103D50000A46521EFDD19A4F0C3F3A68C3F80080C4
:103D6000C2F3400C42468846B8F10108FCD14FEA44
:103D700090084FEA4C0C5FEAC87801D0356001E04A
:103D8000C9F80050CAF800204FEA0108B8F101084C
:103D9000FCD1BB463F689E46C7F340071A600B46FE
:103DA0005B1EFDD1C3084CEA070CDB0701D0356070
:103DB00001E0C9F80050CAF800200B465B1EFDD197
:103DC000DBF80030CEF80020C3F3400873460F46FE
:103DD0007F1EFDD14CEA880EBEF1010F09D01C6098
:103DE000CAF800200846401EFDD11A60491EFDD1C8
:103DF000B9E0724F5FEA807CB87DFF7DA0EB0700E1
:103E0000009057D54FF0000C5FF01F07CAF8002054
:103E10000846401EFDD1DBF800001A60C0F34008E0
:103E20000846401EFDD14CEAC8704FEA500C7F1E78
:103E3000ECD10098401E29D0CAF800204FEA0108B2
:103E4000B8F10108FCD1DBF800701A60C7F3400933
:103E500017468846B8F10108FCD1401E0CD0CAF8BC
:103E600000708846B8F10108FCD11F604FEA0108D4
:103E7000B8F10108FCD1F0E71C60CAF800700846F0
:103E8000401EFDD11F60491EFDD10DE01C6017468C
:103E9000CAF800200846401EFDD1DBF800001F6074
:103EA000C0F34009491EFDD102994CEAC970D9B34B
:103EB000086058E002984FF01F0C0068C70701D057
:103EC000356001E0C9F80050CAF800200F467F1E97
:103ED000FDD11A600F467F1EFDD14008BCF1010CD8
:103EE000ECD1009F7F1E2ED0C00701D0356001E0CD
:103EF000C9F800501046D046CAF800204FEA010C1D
:103F0000BCF1010CFCD118604FEA010CBCF1010CB2
:103F1000FCD17F1E0DD0C8F800008C46BCF1010C0E
:103F2000FCD118608C4600E01DE0BCF1010CFAD118
:103F3000EFE71C60C8F800000F467F1EFDD1186037
:103F4000491EFDD10FE01C60C00701D0356001E0C3
:103F5000C9F800501746CAF800200846401EFDD197
:103F60001F60491EFDD15146CAF80020134F7868E2
:103F70004FEA000CBCF1010CFCD11A604FEA000CB6
:103F8000BCF1010CFCD10C600A600446641EFDD13A
:103F90001A600446641EFDD135603D7A07E00A6070
:103FA0000446641EFDD11A600446641EFDD16D1ED8
:103FB000F5D27046BDE8FE8F100C0140943700200A
:103FC000140801402DE9F04F644B4FF400771F6057
:103FD0001A151C1D2260624E71680D466D1EFDD1C2
:103FE0001A600D466D1EFDD1276022600D466D1EC4
:103FF000FDD11A600D466D1EFDD122600D466D1E6D
:10400000FDD11A600D466D1EFDD196F817C0BCF1AA
:10401000000A0AD022600D466D1EFDD11A600D46C1
:104020006D1EFDD1BCF1010CF4D1DFF83881012502
:10403000C8F8005022608C46BCF1010CFCD11A601B
:104040004FEA010CBCF1010CFCD122604FEA010CDB
:10405000BCF1010CFCD11A604FEA010CBCF1010C5F
:10406000FCD122604FEA010CBCF1010CFCD11A60BA
:104070004FEA010CBCF1010CFCD1DFF8E8904FF0E5
:104080001F0CA9F10409B346C60702D0C9F80050B5
:1040900001E0C8F8005022600E46761EFDD11A607D
:1040A0000E46761EFDD14008BCF1010CECD19BF808
:1040B00016C0ACEB0A06761E2CD0C00702D0C9F899
:1040C000005001E0C8F80050104622604FEA010C91
:1040D000BCF1010CFCD118604FEA010CBCF1010CE1
:1040E000FCD1761E0CD020604FEA010CBCF1010C13
:1040F000FCD118604FEA010CBCF1010CFCD1F0E7D7
:104100001F6020600E46761EFDD118600846401ED6
:10411000FDD10FE01F60C00702D0C9F8005001E0D8
:10412000C8F8005022600846401EFDD11A600846BB
:10413000401EFDD122600846401EFDD11A6008468F
:10414000401EFDD1276022600846401EFDD11A6046
:10415000491EFDD1C9F80050BDE8F08F100C014098
:104160009437002014080140F8B50446C77C008A43
:104170000025C0F347061BE06079A8421BD9A0794F
:10418000E17928448842228A61893A4405FB021178
:1041900001D1002200E0012200922268E37C52F863
:1041A00020208819C1B2207A00F068FB6D1CEDB2A6
:1041B0002079A842E0D8F8BD0022016051F82230F1
:1041C0001B78262B07D0521CD2B2FF2AF6D300212F
:1041D000C171817170474271F9E74279C179521E0C
:1041E00091420BDA491CCAB2C27181790379521A21
:1041F0009A4201DB491C06E0FFF7B6BF817C01292A
:1042000003D10021C1718171F6E77047C17939B1DD
:10421000491ECAB2C27181798A420ED2491E0BE090
:10422000817C01290BD141794A1EC27102799142E8
:1042300001D9891A00E000218171FFF795BF70470D
:104240001E4808B5416941F00101416140691C49BE
:1042500000F0010000901B4801604FF48041416074
:10426000402181608021C160002101614161816143
:10427000C161FEF709FB002211460C20FEF79AFCF3
:104280000C20FEF789FC002211460D20FEF792FC5F
:104290000D20FEF781FC002211461020FEF78AFC5B
:1042A0001020FEF779FC002211461120FEF782FC57
:1042B000BDE808401120FEF76FBC0000001002406E
:1042C00008000240042200202DE9F04F85B00024B0
:1042D00032480094019402940394816941F01001E2
:1042E0008161816901F010010491816941F020012F
:1042F0008161816901F020010491816941F004012B
:104300008161816901F004010491816941F0080132
:1043100081618069DFF8889000F008004FF4604602
:104320000490002231464846FEF722FCDFF874A0D4
:104330004FF48878002241465046FEF719FCDFF81A
:1043400068B0002241F638415846FEF711FC0227BA
:10435000012503970096CDE9015469464846FEF7CA
:104360000BFB012231464846FEF702FCCDF80080E7
:104370000397CDE9015469465046FEF7FDFA41F234
:104380003B00CDE900050320CDE9024069465846CF
:10439000FEF7F2FA05B0BDE8F08F00000010024011
:1043A0000010014000080140000C01400C480B497E
:1043B000022201604FF48271416000218160C0E9F6
:1043C0000312012242615202C0E9062101624162E8
:1043D00081620A21C162FEF733BC00000038004050
:1043E0007424002010B5104C0E480C2120604FF4AE
:1043F000E13060600020A060E060C4E90401A061D9
:10440000E0612046FEF79CFE2068C16841F0100183
:10441000C1600648A4F1440102782046BDE810407E
:10442000FEF778BF003801408C22002038000020C1
:1044300010B5104C0E480C2120604FF4E130606044
:104440000020A060E060C4E90401A061E0612046B2
:10445000FEF776FE2068C16841F01001C160064891
:10446000A4F1840102782046BDE81040FEF752BF57
:1044700000440040CC22002038000020FEE700006D
:10448000F8B50024144F01265FF01E0504EB44002C
:1044900007EB800205EB4000C0B20C230021009620
:1044A00000F00CFA641CE4B20C2CEFD30B4F002488
:1044B00004EB440007EB800205EB40000C23C0B284
:1044C0001946009600F0FAF9641CE4B20C2CEFD304
:1044D000BDE8F84000F0D8B8E0A0000870A10008DE
:1044E0007047000010B40021084B0A465FF000003E
:1044F00003EB8004401CC0B262548028F8D3491CEE
:10450000C9B20429F2D310BC00F0BEB85435002063
:1045100030B5CC0801F0070301259D40EBB2064DF4
:1045200005EB8005C808285C0AB1184302E063EA7D
:104530000000C043285530BD54350020F0B54B482D
:1045400085B0816941F001018161806900F001005D
:1045500004904748416821F0E06141F000714160FA
:104560003B200125CDE900050320424C039069461C
:104570002046FEF701FA01223B212046FEF7F8FA19
:104580003C4E0824103634600A20FEF7E3F9371D4C
:104590003C600A20FEF7DEF934603D600021AE2069
:1045A00000F0C2F90021084600F0BEF900211020F9
:1045B00000F0BAF90021084600F0B6F90021B02059
:1045C00000F0B2F90021812000F0AEF90021FF20B7
:1045D00000F0AAF90021A12000F0A6F90021A620F0
:1045E00000F0A2F90021A82000F09EF900211F2070
:1045F00000F09AF90021C82000F096F90021D3209C
:1046000000F092F90021084600F08EF90021D52033
:1046100000F08AF90021802000F086F90021D920DD
:1046200000F082F900211F2000F07EF90021DA203D
:1046300000F07AF90021084600F076F90021DB202D
:1046400000F072F90021402000F06EF900218D2069
:1046500000F06AF90021142000F066F9FFF742FF2C
:104660000021AF2000F060F905B0F0BD001002405D
:1046700000000140000C01400246012000E05043D0
:10468000491EC9B2FBD2704770B5114E002400BF5D
:1046900004F1B000C0B2002100F046F90021084644
:1046A00000F042F90021102000F03EF95FF0000513
:1046B00006EB85000121005D00F036F96D1CEDB2BE
:1046C000802DF5D3641CE4B2042CE1D370BD00004E
:1046D0005435002070B5114E002400BF04F1B00025
:1046E000C0B2002100F020F90021084600F01CF9BA
:1046F0000021102000F018F95FF0000506EB85009E
:104700000121005D00F010F96D1CEDB2802DF5D394
:10471000641CE4B2042CE1D370BD000054350020C9
:104720002DE9FC4F1C460E4682468B460190082B15
:104730000DD0600700D0012000EBD4006108484391
:10474000C0B28146203AD0B2009000204BE0062053
:10475000F7E7082C13D00C2C18D0102C1BD0182CD9
:1047600044D10098234900EBC00000BF01EB800159
:10477000002711F80850E80712D00B9A13E00098B0
:104780001D4900EB400001EB4001F1E700981B4997
:1047900000EB4000EAE71A49009801EB0011E7E757
:1047A0000B9828B3002231465046FFF7B1FE761C25
:1047B0007F1C6D08FFB2F6B2082FDCD30AF10100AE
:1047C00000F0FF0A082C0AD00199AAEB0100B0EB17
:1047D000540F04D10BF108008A4600F0FF0B08F1DA
:1047E00001005E46C0B280464845B2D3BDE8FC8FAA
:1047F0000122D8E7C6B0000828A4000862A6000875
:10480000D6AA00082DE9FF4F81B00026DDE90EA9E8
:104810001D469346804634464FEA5A0727E0281B38
:10482000401EC1B20A20FFF727FFBBFBF0F00A21B0
:10483000B0FBF1F201FB120026B9691E8C4201DACD
:1048400048B101263030C2B207FB0480C0B25346E3
:10485000CDF8009006E007FB0480C0B2534620224A
:10486000CDF800900299FFF75BFF641CE4B2AC4204
:10487000D5D305B0BDE8F04FFFF706BF2DE9F841ED
:104880001E46154688460446079F0BE033464146C0
:1048900020460097FFF744FF082E0CD004EB56008B
:1048A000C4B26D1C2A78A2F120005E28EED9BDE8C2
:1048B000F841FFF7E9BEA41DE4B2F2E72DE9FF4F8E
:1048C00098460C46834689460025DDF834A024E04E
:1048D00002980026475D380601D5524603E0BAF13A
:1048E000000F12D0002221465846FFF711FE641C2B
:1048F0007806E4B2070EA4EB0901414507D10BF19C
:1049000001004C4600F0FF0B05E00122EBE7761CAE
:10491000F6B2082EDFD36D1CEDB24545D8D3BDE805
:10492000FF4FFFF7D7BE0000F0B50E4B02241A1F51
:1049300009B1146000E01C6001261E6000211027F0
:1049400020251D605FEA006C01D5176000E01F6044
:1049500015604006491C000EC9B20829F1D3166043
:104960001460F0BD140C01402DE9F04186B02248DE
:1049700000240294816941F008018161816901F09C
:1049800008010491816941F00401816180691B493A
:1049900000F00400049040F60160086040F20160FD
:1049A0000126DFF85880CDE900060325A8F110089C
:1049B000694603954046FDF7DFFFF0021127CDE978
:1049C0000007CDE9026569464046FDF7D5FF0220A4
:1049D000CDE9000469464046CDE90245FDF7CCFF2C
:1049E0007003CDE9000769460548CDE90245FDF7AA
:1049F000C3FF06B0BDE8F08100100240100C01407A
:104A0000001001402DE9F0411F4886B0816941F056
:104A10000401816180691D4900F0040000240490B4
:104A200002944FF4606008604FF4C0600126DFF824
:104A30005C80CDE900060325A8F1100869460395BE
:104A40004046FDF799FFF0021127CDE90007CDE9B7
:104A5000026569464046FDF78FFF40F60300CDE949
:104A6000000469464046CDE90245FDF785FF700325
:104A7000CDE9000769460648CDE90245FDF77CFF10
:104A800006B0BDE8F081000000100240100C0140AB
:104A9000001001407047000040210148FEF75CB85B
:104AA000000C014080210148FEF756B8000C01407F
:104AB0004FF480710148FEF74FB80000000C014030
:104AC00038B50B46009204460022802100F01CF805
:104AD000002804D0606D40F020006065032038BDE0
:104AE0003EB5FF248DF80800012301AA02A905485C
:104AF0000094FEF76BF908B18DF804409DF80400AE
:104B00003EBD0000742400202DE9F0411D461746EB
:104B10000E460446DDF8188008E0681C06D0FEF753
:104B20002DF8A0EB0800A8420BD255B12068806890
:104B300036EA000030D00020B842EED10020BDE8B7
:104B4000F0812068416821F0E00141606068B0F5C3
:104B5000827F0BD1A068B0F5004F02D0B0F5806F16
:104B600004D12068016821F040010160A06AB0F51D
:104B7000005F09D12068016821F4005101602068BC
:104B8000016841F400510160012084F851000020C7
:104B900084F850000320D2E70120CDE770470000E1
:104BA000F0B510F03F0300D140231D4C07064FF431
:104BB00000764FF48060A4F104052ED5DFF860C0C4
:104BC000ACF10C0C002B27D0002108260BE0206054
:104BD000DCF800702860C7F3402749085B1E41EAF3
:104BE000C711761E01D0002BF1D1F14002F8011B54
:104BF000E8E700BF11F8012B08270BE05FEAC27C51
:104C000001D02E6000E026602060286052085B1E04
:104C10007F1E02D0002BF1D1F0BD002BEAD1F0BDF8
:104C2000140C0140034A52780AB100F005B800F0B4
:104C30001BBA0000943700202DE9F04FFA4A89464C
:104C40004FF40075014615601315141D23601360A1
:104C5000C00701D0156000E025602360136048089C
:104C6000C70701D0156000E02560236013600E18AF
:104C70008808C70701D0156000E025602360136035
:104C80000644C808C70701D0156000E0256023600E
:104C900013603044C00701D0156000E02560236038
:104CA0001360256023601360156023601360DFF8D4
:104CB0007883A8F10C08D8F8006026F0F006C8F850
:104CC0000060D8F8006046F08006C8F80060DFF8A1
:104CD0005CA39AF81400060003D023601360761ECC
:104CE000FBD12360DFF840C3ACF1080CDCF80060B6
:104CF0001360C6F340262360DCF800701360C7F32E
:104D0000402746EA47062360DCF800701360C7F3CB
:104D1000402746EA8706012E16D0022E6FD0042EB9
:104D2000FCD0213003D023601360401EFBD1D8F8A3
:104D3000001021F0F001C8F80010D8F8001041F080
:104D40003001C8F800108AE1890731D500272020FA
:104D5000E3462360DBF800101360490A7F0847EA46
:104D6000C177401EF5D13846FDF768FC2360DBF8BB
:104D70000010136080EA5120C00700D00826B9F166
:104D8000000F01D0C9F800709AF8140018B1236020
:104D90001360401EFBD1D8F8001021F0F001C8F8D4
:104DA0000010D8F8001041F03001C8F8001020E1E0
:104DB00018B123601360401EFAE7D8F8001021F004
:104DC000F001C8F80010D8F8001041F03001C8F820
:104DD0000010D9F800703846FDF730FC844694483E
:104DE0005FEAC7784FF0C06101D0106000E0116049
:104DF0007F0813605FEAC77802D0106001E001E12C
:104E000011607F0813605FEAC77801D0106000E08E
:104E100011607F0813605FEAC77801D0106000E07E
:104E200011607F0813605FEAC77801D0106000E06E
:104E300011607F0813605FEAC77801D0106000E05E
:104E400011607F0813605FEAC77801D0106000E04E
:104E500011607F0813605FEAC77801D0106000E03E
:104E600011607F0813605FEAC77801D0106000E02E
:104E700011607F0813605FEAC77801D0106000E01E
:104E800011607F0813605FEAC77801D0106000E00E
:104E900011607F0813605FEAC77801D0106000E0FE
:104EA00011607F0813605FEAC77801D0106000E0EE
:104EB00011607F0813605FEAC77801D0106000E0DE
:104EC00011607F0813605FEAC77801D0106000E0CE
:104ED00011607F0813605FEAC77801D0106000E0BE
:104EE00011607F0813605FEAC77801D0106000E0AE
:104EF00011607F0813605FEAC77801D0106000E09E
:104F000011607F0813605FEAC77801D0106000E08D
:104F100011607F0813605FEAC77801D0106000E07D
:104F200011607F0813605FEAC77801D0106000E06D
:104F300011607F0813605FEAC77801D0106000E05D
:104F400011607F0813605FEAC77801D0106000E04D
:104F500011607F0813605FEAC77801D0106000E03D
:104F600011607F0813605FEAC77801D0106000E02D
:104F700011607F0813605FEAC77801D0106000E01D
:104F800011607F0813605FEAC77801D0106000E00D
:104F900011607F0813605FEAC77801D0106000E0FD
:104FA00011607F0813605FEAC77801D0106000E0ED
:104FB00011607F0813605FEAC77801D0106000E0DD
:104FC00011607F0813605FEAC77801D0106000E0CD
:104FD00011607F081360FF0701D0106000E01160CE
:104FE00013605FEACC7001D0156000E0256023609B
:104FF00013609AF8080090B3256023601360401E88
:10500000FBD12CE09AF815704FB15FEA817C06D590
:105010004FF0210C23601360BCF1010CFAD148B1B0
:1050200023601360401EFAE7100C01409437002003
:1050300000020004D8F800C02CF0F00CC8F800C042
:10504000D8F800C04CF0300CC8F800C03FB1880759
:1050500005D42560212023601360401EFBD115601C
:105060003046BDE8F08F00002DE9F04FFA4A89463E
:105070004FF40075014615601315141D236013606D
:10508000C00701D0156000E0256023601360480868
:10509000C70701D0156000E02560236013600E187B
:1050A0008808C70701D0156000E025602360136001
:1050B0000644C808C70701D0156000E025602360DA
:1050C00013603044C00701D0156000E02560236004
:1050D0001360256023601360156023601360DFF8A0
:1050E0007883A8F10C08D8F8006026F0F006C8F81C
:1050F0000060D8F8006046F08006C8F80060DFF86D
:105100005CA39AF81400060003D023601360761E97
:10511000FBD12360DFF840C3ACF1080CDCF8006081
:105120001360C6F340262360DCF800701360C7F3F9
:10513000402746EA47062360DCF800701360C7F397
:10514000402746EA8706012E16D0022E6FD0042E85
:10515000FCD0213003D023601360401EFBD1D8F86F
:10516000001021F0F001C8F80010D8F8001041F04C
:105170003001C8F800108AE1890731D500272020C6
:10518000E3462360DBF800101360490A7F0847EA12
:10519000C177401EF5D13846FDF750FA2360DBF8A1
:1051A0000010136080EA5120C00700D00826B9F132
:1051B000000F01D0C9F800709AF8140018B12360EC
:1051C0001360401EFBD1D8F8001021F0F001C8F8A0
:1051D0000010D8F8001041F03001C8F8001020E1AC
:1051E00018B123601360401EFAE7D8F8001021F0D0
:1051F000F001C8F80010D8F8001041F03001C8F8EC
:105200000010D9F800703846FDF718FA8446944823
:105210005FEAC7784FF0C06101D0106000E0116014
:105220007F0813605FEAC77802D0106001E001E1F7
:1052300011607F0813605FEAC77801D0106000E05A
:1052400011607F0813605FEAC77801D0106000E04A
:1052500011607F0813605FEAC77801D0106000E03A
:1052600011607F0813605FEAC77801D0106000E02A
:1052700011607F0813605FEAC77801D0106000E01A
:1052800011607F0813605FEAC77801D0106000E00A
:1052900011607F0813605FEAC77801D0106000E0FA
:1052A00011607F0813605FEAC77801D0106000E0EA
:1052B00011607F0813605FEAC77801D0106000E0DA
:1052C00011607F0813605FEAC77801D0106000E0CA
:1052D00011607F0813605FEAC77801D0106000E0BA
:1052E00011607F0813605FEAC77801D0106000E0AA
:1052F00011607F0813605FEAC77801D0106000E09A
:1053000011607F0813605FEAC77801D0106000E089
:1053100011607F0813605FEAC77801D0106000E079
:1053200011607F0813605FEAC77801D0106000E069
:1053300011607F0813605FEAC77801D0106000E059
:1053400011607F0813605FEAC77801D0106000E049
:1053500011607F0813605FEAC77801D0106000E039
:1053600011607F0813605FEAC77801D0106000E029
:1053700011607F0813605FEAC77801D0106000E019
:1053800011607F0813605FEAC77801D0106000E009
:1053900011607F0813605FEAC77801D0106000E0F9
:1053A00011607F0813605FEAC77801D0106000E0E9
:1053B00011607F0813605FEAC77801D0106000E0D9
:1053C00011607F0813605FEAC77801D0106000E0C9
:1053D00011607F0813605FEAC77801D0106000E0B9
:1053E00011607F0813605FEAC77801D0106000E0A9
:1053F00011607F0813605FEAC77801D0106000E099
:1054000011607F081360FF0701D0106000E0116099
:1054100013605FEACC7001D0156000E02560236066
:1054200013609AF8080090B3256023601360401E53
:10543000FBD12CE09AF815704FB15FEA817C06D55C
:105440004FF0210C23601360BCF1010CFAD148B17C
:1054500023601360401EFAE7100C014094370020CF
:1054600000020004D8F800C02CF0F00CC8F800C00E
:10547000D8F800C04CF0300CC8F800C03FB1880725
:1054800005D42560212023601360401EFBD11560E8
:105490003046BDE8F08F0000F0B50C4E00234FF40D
:1054A0000074371D1A4665000DE012B911F8013B72
:1054B00008225FEAC37C01D0346000E03C603D60BC
:1054C00035605B08521E401EEFD2F0BD100C01404B
:1054D0002DE9F84F364D374C0027297860784FF08A
:1054E0000108012904D0032910D002292CD01FE083
:1054F000182804D20C30C0B26070182801D31820CC
:105500006070C0B20C38CDF800800BE00C2801D3DD
:105510000C38607010F0FF0F00D16770CDF800807C
:1055200060780C30C1B20C2323A20020FFF7A6F94B
:105530002F70CDF800800C2320A261780020FFF7A7
:105540009DF90020BDE8F88FFEF7CCFF6078194C7C
:10555000E41C28B105210C281ED0182820D023E0F7
:10556000042084F80180DFF85890207000264FF066
:105570001E0A00BF06EB460009EB80020AEB400062
:10558000C0B20C230821CDF80080FFF797F9761CF4
:10559000F6B20C2EEED307E002206070217002E01C
:1055A0006170062020702F702F706078CAE70000AD
:1055B0003000002031000020202000003E3E00008E
:1055C000E0A00008F8B5224E224C00273178207A5E
:1055D0000125012904D003290FD002291ED02DE076
:1055E000102804D20830C0B22072102801D3102035
:1055F0002072C0B20838009509E020B1083810F0D8
:10560000FF00207200D127720095207A0830C1B2C5
:10561000082311A26E20FFF731F90FE00F4920B1E6
:10562000082805D0102808D008E00D70032002E0FB
:10563000022008700420487000E0A57037700095C3
:10564000082307A2217A6E20FFF718F9F8BD0000A1
:10565000300000200800002020200000340000203E
:105660003C3C00002DE9F843394D012400940C2303
:1056700036A2A9786E20FFF701F9DFF8D88000275D
:1056800098F80000012804D003280ED002281FD06B
:1056900058E0A8780C30C0B2A8700C2801D30C20B8
:1056A000A870C0B20C3800940BE0A8780C2801D385
:1056B0000C38A87010F0FF0F00D1AF700094A878DC
:1056C0000C30C1B20C2324A26E20FFF7D7F839E0CA
:1056D000FEF708FF1E48AA780721C01C1E2612B13B
:1056E0000C2A18D02EE001700621DFF8709041706E
:1056F000002500BF05EB450009EB800206EB4000EA
:10570000C0B20C2310210094FFF7D8F86D1CEDB245
:105710000A2DEFD316E008220270DFF844904170A2
:10572000002500BF05EB450009EB800206EB4000B9
:10573000C0B20C2310210094FFF7C0F86D1CEDB22D
:105740000A2DEFD388F80070BDE8F8833C3C0000D8
:1057500031000020300000202020000038A3000885
:10576000B0A300080CB50021244801910091026803
:1057700042F480320260026802F400320092019A20
:10578000521C0192009A002AF5D00268920333D588
:10579000012100911A490A6842F010020A600A6861
:1057A00022F007020A600A6842F004020A604168B7
:1057B000416041684160416841F4806141604168F5
:1057C00021F47C114160416841F4E81141600168B5
:1057D00041F08071016001688901FCD5416821F0C8
:1057E00003014160416841F0020141604168C1F339
:1057F00081010229FAD10CBD00910CBD00100240BC
:105800000020024010B5134C1348217802789142D1
:1058100002D00170FEF766FE2078072819D2DFE873
:1058200000F004080C1818101400BDE81040FEF732
:1058300027BEBDE81040FCF7B5BCBDE81040FCF742
:10584000F5BBBDE81040FCF719BDBDE81040FCF702
:105850006BBD10BD340000200000002010B5074CC7
:105860002078401CC0B220700A2803D9FBF71AFC2C
:1058700000202070BDE81040FDF786B9C803002065
:105880000F4810B5016841F00101016041680D4AFF
:105890001140416001680C4A11400160016821F427
:1058A00080210160416821F4FE0141604FF41F0135
:1058B0008160FFF757FF05494FF00060086010BD99
:1058C000001002400000FFF8FFFFF6FE08ED00E0C8
:1058D00010B5406A0021C185C184FDF7A8FB10BD49
:1058E00070B5446A2068406994F83910C0F3C0105C
:1058F0000025212904D118B1E584204600F046F89E
:105900002068406994F83A10C0F38010222904D12D
:1059100018B1E585204600F02BF8E06B40F0100050
:10592000E0632046FDF783FB70BD10B50146406A79
:1059300009680968890613D40021C1850168CA680D
:1059400022F48072CA6001684A6922F001024A6149
:1059500001684A6922F040024A61202180F83A1029
:10596000FDF724FD10BD10B5406AFDF720FD10BD08
:105970000168CA6822F49072CA6001684A6922F01C
:1059800001024A61202180F83A1070470168CA6814
:1059900022F0C002CA60202180F83910704710B58B
:1059A00090F83A10222901D0022010BD8168B1F58B
:1059B000805F11D00169002901681FD0496801F09A
:1059C0007F03816A4A1C82620B70C18D491E0904E3
:1059D000090CC18518D02BE00269816A002A02688F
:1059E000526805D0D2B20A80816A491C8162ECE714
:1059F000C2F308020A80816A891CF7E74A68816A53
:105A00004B1C83620A70E0E70168CA6822F020023A
:105A1000CA600168CA6822F48072CA6001684A6973
:105A200022F001024A61202180F83A10FDF7BEFC05
:105A3000002010BD2DE9F041044600680169E268CC
:105A400021F44051114301612169A0680843616953
:105A500008432168CA6841F20C639A430243CA6052
:105A600020684169A26921F44071114341611E49D6
:105A7000206864253226884202D1FDF7D1F801E082
:105A8000FDF7BEF800EBC00101EB001160686FF09C
:105A900018078000B1FBF0F2B2FBF5F2B1FBF0F3B6
:105AA0007A4303EB8202B1FBF0F306EB0212B2FB86
:105AB000F5F2B3FBF5F302F0F00202EB0312B1FBD7
:105AC000F0F3B1FBF0F0B0FBF5F0784303EB8000AE
:105AD00006EB0010B0FBF5F0216800F00F00104459
:105AE0008860BDE8F08100000038014090F839106E
:105AF000212901D0022070478168B1F5805F016AD9
:105B00000BD04A1C0262026809785160C18C491EA0
:105B10000904090CC1840ED017E009880268C1F39A
:105B20000801516001690029016A02D0491C016223
:105B3000ECE7891CFBE70168CA6822F08002CA60B2
:105B40000068C16841F04001C160002070472DE944
:105B5000F041984617460E460446069D1DE0681C17
:105B60001BD02DB1FDF70AF8A0EB0800A84214D90C
:105B70002068C16821F4D071C1602068416921F0BA
:105B800001014161202084F8390084F83A000020A6
:105B900084F838000320BDE8F0812068006836EA08
:105BA000000004D00020B842D9D00020F3E7012043
:105BB000F9E700000F4808B500680168C943C90645
:105BC00012D4016841680091016840680948FDF7F6
:105BD00002FA09480068406808490978081A084923
:105BE0000870084901200870BDE808400148FDF729
:105BF0001FBA00008C220020502300203800002013
:105C000036000020370000200F4808B50068016802
:105C1000C943C90612D4016841680091016840680F
:105C20000948FDF7D8F9094800684068084909782B
:105C3000081A08490870084901200870BDE80840A2
:105C40000148FDF7F5B90000CC2200209423002084
:105C500038000020360000203700002070B5074DC6
:105C6000074C47F6FF7605E0268000F00F01284636
:105C700003F0C6FC20880104F6D470BDD43800209F
:105C8000445C00402DE9F041DFF87C801F4C47F672
:105C9000FF7605E0268005F00F01404603F0B0FCDA
:105CA00025882804F6D41A4E68054FF0000709D558
:105CB0004FF6FF302080301D0780404603F016FF6E
:105CC00080203080280513D54FF2FF702080308867
:105CD0004106104804D03780018821F4006101801A
:105CE000018841F008010180018841F00401018030
:105CF000E80405D54EF6FF702080404603F07CFB9B
:105D00002780BDE8F0810000D4380020445C0040CA
:105D10004C5C0040405C0040FEE7000070B50403AE
:105D200000F0FCF800F0A4F80F4E4FF4805500226C
:105D300029463046FCF71CFF2020FEF7D1FEC4F3B5
:105D40000740FEF7CDFEC4F30720FEF7C9FEE0B220
:105D5000FEF7C6FE012229463046FCF709FFBDE8E2
:105D6000704000F085B80000000C014010B5FEF74F
:105D70001DFB00F03BF80449FF28088001D00020FB
:105D800010BD012010BD00003A0000202DE9F041B7
:105D9000DFF8548015460C4606464FF48057002223
:105DA00039464046FCF7E4FE0320FEF799FEC4F3B3
:105DB0000740FEF795FEC4F30720FEF791FEE0B220
:105DC000FEF78EFE002405E0FF20FEF789FE305529
:105DD000641CA4B2AC42F7D339464046BDE8F0415A
:105DE0000122FCF7C5BE0000000C014070B5124E48
:105DF00000244FF48055224629463046FCF7B8FE71
:105E00009020FEF76DFE0020FEF76AFE0020FEF7F0
:105E100067FE0020FEF764FEFF20FEF761FE44EA05
:105E20000024FF20FEF75CFE044301222946304691
:105E3000FCF79EFE204670BD000C014070B50B4E75
:105E40004FF48055002229463046FCF791FE05208C
:105E5000FEF746FEFF20FEF743FE044601222946D8
:105E60003046FCF785FE204670BD0000000C014066
:105E70002DE91040FFF7E2FFC007FBD110BD000085
:105E80002DE9F05FC1F30B06DFF88C800F0BC6F530
:105E90008054894682461546A24200D814463903EA
:105EA0008B464FF480524046FFF770FF002006E01B
:105EB000321818F80210FF2903D1401C80B2A0420A
:105EC000F6D3A04222D23846FFF728FF002006E092
:105ED0001AF800208319401C08F8032080B2A04261
:105EE000F6D359464FF480524FEA080000F02CF8E0
:105EF000A5420FD0281BA244A144002685B24FF42E
:105F000080547F1CA542CAD82C46C8E72246494681
:105F10005046EBE7BDE8F09F5425002070B5094DD1
:105F20004FF48054002221462846FCF721FE06202B
:105F3000FEF7D6FD21462846BDE870400122FCF759
:105F400017BE0000000C01402DE9F0410746C8B221
:105F5000C0F580740E461546A24200D814464FF490
:105F6000807822463146384600F00EF8A54208D027
:105F7000281B2744264485B24446A542F1D82C4626
:105F8000EFE7BDE8F08100002DE9F04115460C4631
:105F90000646FFF7C3FFDFF850804FF4805700221A
:105FA00039464046FCF7E4FD0220FEF799FDC4F3B4
:105FB0000740FEF795FDC4F30720FEF791FDE0B220
:105FC000FEF78EFD002404E0305DFEF789FD641CC1
:105FD000A4B2AC42F8D3012239464046FCF7C8FDD2
:105FE000BDE8F041FFF744BF000C01402DE9F84344
:105FF000304C6078012805D0062803D0072801D04E
:10600000FFF700FC60782C4D082851D2DFE800F043
:1060100004083450503A3E47BDE8F843FFF758BAF9
:106020002648006808B103F05FFF25490026254C8B
:106030000868802748B10097884683B2217A224AAF
:10604000206803F0BBFDC8F800602A781F4920488B
:10605000FDF760F91F480178012908D10670009703
:106060001D4A217A20681378184A03F0A7FDBDE87D
:10607000F8431A4803F03EBCFFF7A4FABDE8F84322
:10608000FAF7E8BCBDE8F843FFF7ECBA2A780F4905
:106090001348FDF73FF9BDE8F84303F095BF2A78B0
:1060A0000A490F48FDF736F9BDE8F84303F038BF59
:1060B000BDE8F8833400002038000020B803002039
:1060C000BC03002094000020A439002048220020B6
:1060D000CC2200203700002036000020D400002011
:1060E0008C2200200907090E002804DB00F1E020C3
:1060F00080F80014704700F00F0000F1E02080F8F5
:10610000141D7047BFF34F8F05480168054A01F41D
:10611000E06111430160BFF34F8F00BFFDE7000056
:106120000CED00E00400FA0502E008C8121F08C1E7
:10613000002AFAD170477047002001E001C1121F08
:10614000002AFBD17047000010B54FF4A8711B481E
:10615000FAF723F819481AA1342201601BA18163C0
:106160001DA101671FA1C0F8A81021A1C0F8E0106F
:1061700022A1C0F818112449001DF9F7F5FF0F48B6
:10618000342222493C30F9F7EFFF0C4834222049F1
:106190007430F9F7E9FF094834221E49AC30F9F7A9
:1061A000E3FF064834221C49E430F9F7DDFFBDE87F
:1061B0001040342219491A48F9F7D6BFC4390020D3
:1061C00053544D33324630585800000053544D3329
:1061D000324631585800000053544D33324633583C
:1061E0005800000053544D333246345858000000D4
:1061F00053544D33324637585800000053544D33F2
:106200003248375858000000E8C1000868C3000849
:106210000CC5000830C6000888C70008BCCB0008C1
:10622000E03A002010B54B78042B2EDD202B06D051
:10623000212B11D0222B22D0232B26D121E0D37861
:10624000116863F31F6140F82C1F117901715179B6
:1062500041719179817118E010F82C1F117001883B
:10626000090A51700168090C91700168090ED1701A
:1062700001791171417951718079907105E0026A5B
:1062800000E0426A0AB149889047002010BD38B545
:1062900042680446808C116881420CD951680C32E6
:1062A00051F8205004F120012846FFF7BBFFE969AF
:1062B00009B128468847002003460246014600905F
:1062C000204603F07BFC38BD704700000148826027
:1062D00001207047B403002010B5417A006803F034
:1062E00039FD002010BD000070B504460020E070AC
:1062F000401EE062204601F00DFF08B1042070BD91
:1063000004F22E2001F0EAFC054694F830004AF62B
:106310005526EB2803D0E92801D0E8282ED1B54234
:1063200007D1082218A104F1820001F0AFFD002876
:10633000E5D004F13B0001F0D1FC411E08421DD123
:106340004FF40071884219D3884217D894F83D0061
:10635000A0B1411E084211D194F84000012801D09B
:1063600002280BD104F1410001F0B8FC30B104F176
:10637000460001F0B3FC08B1002070BDB54201D168
:10638000022070BD032070BD4641543332202020CE
:10639000000000004269891E921E8A4201D8002036
:1063A0007047826A408900FB0120704770B5DDE9C3
:1063B000040408810B60A04200D92046441C6508F3
:1063C00014880F4E640806EB8404968860F309066F
:1063D0009680002206E000BF33F8026B521C24F8BE
:1063E000046BD2B2AA42F7D34A8A521C4A820A6884
:1063F00002440A600A89121A0A81C88170BD00002D
:10640000006000402DE9F04106680F00804606D08C
:1064100001F0AAFA022809D20120BDE8F081F4684F
:1064200014B17069A04207D8012405E0411CF4D0E2
:1064300071698142F1D83C4630690028EDD0BC42F8
:1064400016D17069651CA84200D80225294640462D
:1064500001F08AFA0128E0D0411CDED038B1F068A2
:10646000022805D37169814202D9044600E0A5B92A
:10647000254670696D1CA84202D80225022C0AD359
:106480002946404601F070FA38B10128C5D0411CB8
:10649000C3D0A542EDD10020BFE74FF0FF34224624
:1064A0002946304602F069F930B95FB12A463946CB
:1064B000304602F062F928B1012800D001242546B7
:1064C0002846AAE7F560D6E90401891E884201D86A
:1064D000401E3061307940F001003071F0E700007B
:1064E0002DE9F0410E4620300D6804460B22202194
:1064F00001F0E2FC0020014608232A5C401C202A0F
:1065000012D92F2A0BD05C2A09D02E2A01D0994209
:1065100014D30B2B37D02E2A35D10CE0401C2B5C2A
:106520002F2BFBD05C2BF9D02844306059B3207856
:10653000E52834D035E008210B23DEE7812A18D383
:106540009F2A03D9A2F1E0071C2F12D82F5C401C10
:10655000402F18D37E2F04D9A7F1800CBCF17C0FFB
:1065600011D8A3F1010C61450DD26254491C675446
:1065700013E010A700E07F1C97F800C0BCF1000FEB
:1065800004D09445F7D10620BDE8F081A2F161075F
:10659000192F01D8203AD2B26254491CADE7052028
:1065A0002070202A01D8042000E00020E0720020A2
:1065B000EAE70000222A2B2C3A3B3C3D3E3F5B5D44
:1065C0007C7F00002DE9FF4F81B09B466A46012188
:1065D000019800F0E3F900287ED108264FF03F092A
:1065E000F101009F03E0700010F0FF0606D006FBEB
:1065F00009F0B7FBF0F08842F5D806B9FF264FF452
:1066000000720021584601F057FC0BF5DF754FF082
:10661000000A4C465DE0029850F82A80B8F1640FF9
:1066200009D801D1384605E04FF06400B7FBF0F01F
:1066300000FB08F0804604EB0800B84201D8A042F5
:1066400001D2A7EB0408B8F1000F44D0214605F1B0
:10665000080002F096F9414605F10C0002F091F9AC
:10666000B4FBF9F2B2FBF6F303982871B4FBF9FC22
:1066700009FB06F006FB1322B4FBF0F109FB1C43F7
:106680006A70C02202EA910C5B1C4CEA030C85F88C
:1066900002C0E97004EB08014C1EB4FBF9F3B3FB34
:1066A000F6FCB4FBF9F8B4FBF0F006FB1C3C09FB6C
:1066B000184302EA90025B1C85F805C01A43AA71D0
:1066C000E8710AF1010A10350C46BAF1040F02D242
:1066D0000CB1BC429FD300E00DE04AF655210BF50A
:1066E000FF7002F056F9012300225946019800F08C
:1066F00090F9002800D0012005B0BDE8F08F00001F
:1067000006494FF47A620968B1FBF2F14143002077
:1067100001E000BF401C8842FBD37047C403002047
:106720002DE9F0410C46054602F058FD00BB21461C
:106730002846FFF72FFE0746E86205F130004FF4C8
:1067400000720021044601F0B7FBA0460126002498
:1067500000E034446889A04207D933463A19687882
:10676000414600F056F90028F3D06889A04202D0D3
:106770000120BDE8F0810020FBE72DE9F047066924
:1067800007682036894604464FF00008B6F5001F1A
:1067900035D2A06910B1F10503D03DE00420BDE879
:1067A000F087401CA061616929B17889401E10EA18
:1067B000562F05D030E03889B0EB561F1FD92BE09B
:1067C000204601F0D1F8054601281DD9681C14D0D7
:1067D0007869A8421AD8B9F1000F10D02046616933
:1067E000FFF710FE05000DD0012D0DD0681C04D060
:1067F00029463846FFF794FF40B10120CFE7C4F89F
:106800001880CBE70720CAE70220C8E729463846A8
:106810006561FFF7BFFDA061C6F308003844303062
:106820002661E0610020BAE770B504460E460420F8
:10683000256821E0284601F06DFC10BBE269117863
:10684000B1B1D27AE52902F03F02A2710AD02E2915
:1068500008D00F2A06D022F0200108290AD00021F2
:10686000B14210D000212046FFF787FF20B108E099
:10687000042006E00121F3E7A1690029DAD100280C
:1068800001D00021A16170BD70B5044600210668E9
:1068900000F03CF80DE03046A16901F03BFC50B936
:1068A000E0690078E52809D040B101212046FFF7D2
:1068B00064FF0028EFD0042807D007E03046A16924
:1068C00001F028FC050003D00FE0072005460CE08E
:1068D00020220021E06901F0EFFA0B2204F12001EF
:1068E000E06901F0E0FA0120F070284670BD70B553
:1068F000056804468169284601F00CFC002804D193
:10690000E269E52111700121E97070BD2DE9F041C6
:1069100007680E460546B1F5001F36D2F00634D1A1
:106920002E61AC6824B93878032805D37C6A1CB181
:1069300078894FEA402812E03889B0EB561F24D9F5
:10694000786A12E0284601F00FF80446401C1AD07D
:10695000022C1AD37869A04217D9A6EB080646453F
:106960002146EFD23846FFF715FDC5E9054060B175
:1069700000EB5620A861C6F3080038443030E861C7
:106980000020BDE8F0810120FBE70220F9E718B103
:10699000012800D001207047FFF7E8B918B101289D
:1069A00011D004207047012904D0022905D0032901
:1069B00009D106E04FF4004004E04FF4007010806D
:1069C00001E001201060002070472DE9F0411C46D5
:1069D00015460E4678B1012811D00420BDE8F0819B
:1069E00069023A463046FFF7D1F9641EE4B26D1CE5
:1069F00006F5007601E04FF40077002CF0D100207E
:106A0000ECE7010003D0012800D0012070470020EE
:106A100070472DE9F0411C4615460E4678B1012815
:106A200011D00420BDE8F08169023A463046FFF7F4
:106A300027FA641EE4B26D1C06F5007601E04FF4FF
:106A40000077002CF0D10020ECE738B5044600F0C8
:106A50005DFD002807D16946204603F015FB00289C
:106A600001D10021216038BD2DE9F84F0D460446C3
:106A7000694603F009FB070076D1677C002F73D1CC
:106A8000E068A84203D2217C890700D405464FF074
:106A9000000860694FF00109C4F814800DB3009933
:106AA0004FF0020A49894E0268B1691E401EB1FBCF
:106AB000F6F1B0FBF6F2914205D3711E8843606196
:106AC0002D1AA1690CE0A16849B900212046FFF701
:106AD00099FC0146012848D0481C57D0A160A1610B
:106AE000D1B926E06069AD1B30446061207C80072D
:106AF000204605D5FFF786FC010004D100250DE0F6
:106B000000F032FF0146481C40D001292DD90098E1
:106B10004069884229D9A161B542E3D86069284417
:106B20006061E80505D00098FFF734FCE8B100EBA0
:106B30005528E1686069884204D9E060217C41F011
:106B400040012174C00527D0E269424524D0207C51
:106B500004F12805000611D5009801232946407844
:106B6000FFF757FF90B905E016E084F811A0022066
:106B7000BDE8F88F207C00F07F002074009801238E
:106B8000424640782946FFF720FF18B184F811905B
:106B90000120EDE7C4F81C803846E9E72DE9FF4FF6
:106BA00097B0984692460D4617A800F071FF00284E
:106BB00003DA0B201BB0BDE8F08FFE49002451F82A
:106BC000201001B10C70C0B2069005B9FA4DFFF764
:106BD000DEFEC10701D00320ECE7400701D50A2003
:106BE000E8E768680127FE03119048B911AA03215C
:106BF0000698FFF7D3FE08B1119703E0119828B16A
:106C0000B04203D81198411E084200D0119728784D
:106C10004FF4007900F00F0015906878421E012AA9
:106C200000D901208346A868421EB24205D2102234
:106C3000B0FBF2F302FB130202B148461090E86881
:106C4000B0F1807F02D8411E084200D00020B0FB86
:106C5000F9F7B8FBF9F05FEA00080DD05FEA0A0522
:106C60000AD000200F9004900FAA01210698FFF788
:106C700095FE00287ED101E011209BE715980007C2
:106C800006D40F983F2803D93F213F3804910F9035
:106C90000F98864680286ED3802F00D980271598BC
:106CA00040F6F572800715984FEAC07002D50028AB
:106CB0007ED000E008B10226A7E013207AE73C006E
:106CC0000FD1BD49002001244FEA5E430E3901E097
:106CD0006400401C31F810C0BCF1000F01D09C458D
:106CE000F6D9BEFBF4F009EB8001C91DB1FBF9F147
:106CF0000B9100210C914FF6F5714FF0200A88425C
:106D000039D9AE49884236D82BE000BFAA4B0020C3
:106D100001244FEA1E311C3B01E06400401C33F8A3
:106D200010C0BCF1000F01D08C45F6D9BEFBF4F0C9
:106D3000904203D9042101EB400006E0012600EB5C
:106D400040000321401C01EB50004844401EB0FBB2
:106D5000F9F00B9010984FF0010A4101B1FBF9F0E6
:106D60000C9004980C995044089043180B9800FB21
:106D70000B3101E044E15BE011980B18401E5B1EF3
:106D80008343581A032E28D0B0FBFBFC0BFB1C03DB
:106D90002BB1089B0AF1010A5B1C401E0893B0FB53
:106DA000FBF30B9818440B9001EB0411049800E0DE
:106DB00031E0091A71453BD80B98AEEB0A0300FB92
:106DC0001B310C98081AB0FBF4F00390032E09D085
:106DD000022E10D0012E29D02CE0089B82441844AA
:106DE0000890E1E74FF6F571884223D807BB6708A2
:106DF0007FF465AF1CE04FF6F571884211D93FB9B9
:106E00004020B0EB440F03D367003C008ED17DE7F8
:106E10001598800707D5032651E76700802FF4D91E
:106E200006E0904206D8002FF7D001E0904201D949
:106E30000E20BFE64A460021284601F03DF80B220D
:106E40005FA1284601F02FF8494605F10B0001F03B
:106E5000A0FD6C731FFA8AF105F10E0001F099FD97
:106E600085F810B0032E0FD0109881B205F11100F3
:106E700001F08FFD0F99B1F5803F07D289B205F17E
:106E8000130001F086FD05E00020EEE705F120008B
:106E900001F077FDF82068753F2105F1180001F039
:106EA00078FDFF2105F11A0001F073FD05F11C00CA
:106EB000049901F066FD802744494FF0290A032E0A
:106EC00025D005F1270001F05CFD0B9881B205F19A
:106ED000160001F05EFD85F8247085F826A01322C7
:106EE0003BA105F12B0000BF00F0DDFF4AF655275E
:106EF00005F5FF703946824601F04BFD0123294616
:106F0000049A0698FFF785FD002879D120E005F165
:106F1000430001F036FD05F124000B9901F031FD2D
:106F2000022105F12C0001F02CFD012105F13000BA
:106F300001F02FFD062105F1320001F02AFD85F850
:106F4000407085F842A0132226A105F14700CBE747
:106F5000032E59D1049A01232946921D0698FFF762
:106F600058FD4A460021284600F0A6FF224928463F
:106F700001F007FD214905F5F27001F002FD0399CA
:106F800005F5F470491E01F0FCFC022105F5F670D0
:106F900001F0F7FC3946504601F0FBFC049A01234E
:106FA0002946D21D0698FFF734FD049A012329468D
:106FB000521C26E0DC0300200CCC0008F5FFFF0F7C
:106FC000EBFE904D53444F53352E30000000384BAC
:106FD0004E4F204E414D4520202020464154202038
:106FE000202020004E4F204E414D4520202020469D
:106FF000415433322020200052526141727241616B
:1070000062E00698FFF705FD08FB09F2002128461B
:1070100000F052FF08980D90002035E0032E15D0A7
:10702000012E22D06FF007014FEA050001F0A9FC04
:107030000B9F4046474500D838468246C3B2294692
:107040000D9A0698FFF7E5FCF0BB10E06FF0070122
:10705000284601F096FC4FF0FF31281D01F091FC0D
:107060006FF0704105F10800E0E72849DCE74A4687
:107070000021284600F020FF0D98B7EB0A07504486
:107080000D90D6D10798401C07905845C6D3032EC3
:1070900000D00C9C4046444501D9074600E02746F5
:1070A000FBB229460D9A0698FFF7B3FC60B90D981C
:1070B000E41B38440D90EDD1032E06D00F98B0F5A7
:1070C000803F04D3062205E01BE00C2202E0022EE2
:1070D00019D00122159800070BD40F9813900020A7
:1070E00014902B4613A90698FFF76CFA00287FF43A
:1070F00073AD002211460698FFF750FC00283FF4BC
:107100006BAD012056E50422E4E70000F8FFFF0024
:1071100017B581B0144602980090684600F0B8FC9C
:10712000002802DA0B2004B010BD0A4A002352F8EE
:10713000201001B10B70019901B10B7042F82010C1
:107140002CB1002201A902A800F0BEFEEBE700204E
:10715000E9E70000DC0300202DE9F7438CB00500CF
:107160000BD002F03F06324669460DA800F0ACFE97
:1071700004004FF0000804D0BAE009200FB0BDE8C9
:10718000F0830098019001A80D9900F073FB0400B2
:1071900004D19DF82F00000600D5062416F01C0F20
:1071A00046D04CB1042C03D101A8FFF76DFB044677
:1071B00046F008065CB19BE09DF80A0010F0110F44
:1071C00001D0072494E0700701D5082490E030072F
:1071D0003DD50899009800F063FD07460898474997
:1071E0000E3001F0CEFB089920200022C8720899C9
:1071F000009801F0B2FB089800211C3001F0C1FB9F
:1072000000990120C87007B3D1F82C9000223946AC
:1072100001A801F068FB04006AD14946009800F01B
:1072200079FF04000098A7F10107C7600BD05FE069
:10723000CCBB9DF80A00C10601D5042458E0B10773
:1072400001D5C007BDD1300701D546F040060098F2
:10725000C16A296208996962089900F021FDA86055
:1072600008981C3000F02FFDE86000982860009816
:107270004FF400720021C088A8802E7485F8118018
:10728000C5F81C8005F128008146C5F8148000F07F
:1072900013FEB0062ED5EE6866B36E610098A9683D
:1072A000408947020FE023E0284600F05DFB0146DD
:1072B000012800D80224481C02D0F61B1CB104E0AF
:1072C0000124F61B01E0BE42EED8A96184B9F005A5
:1072D00010D00098FFF75EF870B100EB5622EA611B
:1072E0000098012349464078FFF76FFB10B1012455
:1072F000C5F80080204641E70224F9E70000384B3A
:1073000013B582B0040006D00022694603A800F03D
:10731000DBFD18B120E0092004B010BD009820600A
:107320002046039900F0A6FA90B994F82B000006C5
:1073300007D4A079C00612D5E169009800F0B0FC2E
:10734000A06000980021C088A0802046FFF7DEFAE8
:10735000042804D00028DFD000212160DCE70520CC
:10736000FAE710B594B00446684601F0B3FA214636
:10737000684601F077FA684601F097FA14B010BD3C
:107380002DE9F04F884689B00021196099461546CD
:10739000044604A902F078FE002812D1607C00287F
:1073A0000FD1207CC0070BD0E16860690127081A63
:1073B0004FF0020A04F1280B854200D9054680E00F
:1073C000072009B0BDE8F08F6069C10561D104995B
:1073D0004989491E11EA502609D1C8B12046A16940
:1073E00000F0C2FA022815D3411C4DD0A061A1695A
:1073F0000498FEF7CFFF68B130440190680A059009
:1074000028D03218049841898A4207D8059907E0A4
:10741000A068E7E784F811A00220D2E7891B059154
:10742000CBB240784146019AFFF7CFFA60BB207C8F
:1074300000060CD5E1690198081A0599884206D220
:1074400008EB40204FF40072594600F02CFD0598DF
:1074500046022CE0E2690198824218D0207C0006A6
:107460000AD50498012359464078FFF7D2FA58B953
:10747000207C00F07F002074049801235946407856
:10748000019AFFF7A2FA10B16774012099E70198F9
:10749000E061A08AC0F30800C0F50076AE4200D9D2
:1074A0002E46011932464046283100F0FCFCD9F83E
:1074B0000000AD1B3044C9F800006069B04430449E
:1074C0006061002D80D100207BE738B50C46054671
:1074D000694602F0D9FD002813D1014628468CB137
:1074E000FFF7A2F9042801D000280AD12146284636
:1074F00000F099FA00212846FFF73FF9042800D14F
:10750000002038BDFFF702FA38BD0000F8B5044688
:10751000694602F0B9FD00280ED1217C4A060BD540
:1075200008060ED50098E2690123407804F128018D
:10753000FFF76FFA08B10120F8BD207C00F07F0052
:107540002074154E216A009800F0E4FD0028F3D164
:10755000656A2946E87A40F02000E872A26820684F
:1075600001F0FBF905F11C00E16801F00AFA31466F
:1075700005F1160001F005FA002105F1120001F0F5
:1075800008FA00980121C17001F0E4FD217C01F0AE
:10759000BF012174F8BD00000000384B11B599B04F
:1075A00002220BA919A800F08FFC00280CD10B981F
:1075B00000906846199900F05DF9002804D19DF803
:1075C0002B00000602D506201AB010BD9DF806005B
:1075D000C00701D00720F7E707990B9800F060FB80
:1075E00004469DF80600C00610D50B980D900021AA
:1075F0000F940DA8FFF78AF90028E5D100210DA806
:10760000FFF712F90028E5D00428DDD16846FFF71E
:107610006EF90028D8D134B100222146684601F025
:1076200062F90028D0D10B9801F094FDCCE72DE948
:10763000F04F89B0044600208846186099461546E8
:1076400004A9204602F020FD002806D1607C002815
:1076500003D1207C800703D4072009B0BDE8F08F58
:107660006069012742194FF0020A04F1280B824297
:1076700000D2C54395E06069C1056FD1049949897D
:10768000491E11EA502612D108B1A16902E0A06892
:1076900028B900212046FEF7B5FE00287DD001283C
:1076A00025D0411C55D0A061A16801B9A060207C03
:1076B00000060BD50498E269012340785946FFF78C
:1076C000A8F9A8BB207C00F07F002074A169049871
:1076D000FEF760FE58B130440190680A059028D04A
:1076E0003218049841898A4205D8059905E084F842
:1076F00011A00220B1E7891B0591CBB24078414629
:10770000019AFFF786F998B9E1690198081A059975
:1077100088420AD208EB40214FF40072584600F02C
:10772000C2FB207C00F07F0020740598460227E011
:107730000FE0E169019881420ED0E16860698842FA
:107740000AD20498012359464078019AFFF73DF97F
:1077500010B16774012080E70198E061A08AC0F34E
:107760000800C0F50076AE4200D92E4620443246CD
:107770004146283000F097FB207C40F080002074C8
:10778000D9F80000AD1B3044C9F800006069B0446E
:1077900030446061E168884200E005E000D80846B6
:1077A000E060002D7FF467AF207C40F04000207443
:1077B000002052E72DE9F05F814617468B46900581
:1077C00000D0FEE72748DFF8A0804FF48061026810
:1077D00052B901220260D8F810204046120603D5A3
:1077E000224A4260224A42608A465446A74236D321
:1077F0004D4602F063FCD8F8100040F00201C8F8D2
:107800001010C8F81450D8F8100040F04001C8F823
:10781000101002F053FCD8F8100020F00201C8F854
:1078200010104E465D4602F049FCD8F8100040F0BA
:107830000101C8F810102888308002F03FFCA41E17
:10784000AD1CB61C022CF6D2D8F8101021F00101A4
:10785000C8F8101009F58069A7F58067C5E7BDE88D
:10786000F09F0000C0030020002002402301674574
:10787000AB89EFCD2DE9F34105460668019801E09B
:10788000401C019001782F29FAD05C29F8D0002003
:10789000A86001980078202808D2802085F82B0065
:1078A00000212846FFF732F8BDE8FC8101A92846EF
:1078B000FEF716FE0028F7D1002128462F68FFF7B3
:1078C00025F8E0B93846A96900F024FC040015D178
:1078D000E8690178E1B1C17A01F03F02AA71C17A89
:1078E000090705D40B2205F1200100F0CFFA28B1D9
:1078F00000212846FEF741FF0400E3D0204695F81A
:107900002B1038B10428CFD14907CDD40520CBE7BF
:107910000424F3E74907C7D4A879C006F6D5288A16
:10792000C0F3080081193046303100F0B9F9A86081
:10793000BCE738B504468DF8000069460320ABBEAD
:10794000204638BD2DE9F04102FB01051F461646D1
:10795000044604E014F8010B3946FFF7EAFFAC4295
:10796000F8D13046BDE8F0812DE9F04104680D46BC
:1079700002290BD36069A84208D920784FF0FF365E
:10798000012807D002282BD0032839D00126304601
:10799000BDE8F081206A05EB550700EB5721204632
:1079A00000F0B8FB0028F2D1C7F3080020447F1C88
:1079B00090F83080206A00EB5721204600F0AAFBA7
:1079C0000028E4D1C7F30800204490F8301048EABA
:1079D0000120E90701D00609D9E7C0F30B06D6E775
:1079E000206A00EB1521204600F094FB0028CED140
:1079F000E8B204EB4000303000F070F90646C6E70C
:107A0000206A00EBD511204600F084FB0028BED18F
:107A100040F2FF1000EA85002044303000F053F9B6
:107A200020F07046B3E72DE9F041002305464B7284
:107A300080690C46002828D0002002462E26E969DD
:107A4000095C401C20290AD0052900D1E52109281C
:107A500002D1A718521C7E72A718521C79720B28EB
:107A6000EDD3A0184372E869C07A2072E8691C302F
:107A700000F029F92060E869163000F02FF9E08065
:107A8000E869183000F02AF9A080BDE8F081000014
:107A900010B504464FF0FF3021680A0011D000BF36
:107AA00011F8013B212B0DD33A2BF9D11378303B40
:107AB000092B06D8921C8A4203D1012B01DA184601
:107AC000216010BD002010BD10B5044690F85E0284
:107AD00008B1206D48B3204600F0D1FB002813DD2B
:107AE0004FF0010184F85E1294F834100A0682B255
:107AF00004F15801204603D5BDE8104000F030BE27
:107B0000BDE8104000F0ACBB0FDA94F8340000067A
:107B100005D5207A40F08001206802F033F9012178
:107B20002046BDE8104000F00DBE0021F8E7F8B592
:107B300043680446808C196881420DD9596851F810
:107B40002000C16841B1618C4569CAB2090A1DB102
:107B5000E68C0C330096A8470020034602460146F7
:107B60000090204602F02AF8F8BD0000044810B545
:107B7000426011460348FBF779FC012010BD00006C
:107B8000B40300206439002010B5417A006802F087
:107B9000E1F8FBF789FC002010BD000070B5354905
:107BA00004460B8847F27000034043F22002534022
:107BB00048F280252B430B802F49682322250B8018
:107BC00028230B818B896FF3090365F38F23294DDC
:107BD0008B812D1D2B8848F281060340534033438F
:107BE0002B80C8230B82A8230B838B8B10256FF36C
:107BF000090365F38F238B831E4B08331D8848F2DE
:107C000082660540554035431D804FF494730B84C4
:107C1000E8230B858B8D22256FF3090365F38F23F2
:107C2000144D8B8510352B880340534048F2840057
:107C300003432B804FF4D470A1F840004FF4B4708C
:107C4000A1F84800B1F84C0022226FF3090062F35A
:107C50008F20A1F84C00882104F10800F8F79DFA64
:107C60000020A0810548A0610548E0610548C4F8EE
:107C70008C0070BD005C00400060004041C0000806
:107C80003CC0000848C0000810B5002305E0DC0037
:107C900021FA04F4C4545B1CDBB29342F7D310BD49
:107CA00070B506460D4601F11A0000F017F80446BB
:107CB0003078032805D105F1140000F00FF844EAEC
:107CC0000044204670BDC178827842EA01214278A2
:107CD000007842EA012140EA0120704741780078AB
:107CE00040EA01207047000008B5FAF783FF4FF41F
:107CF0007A78B0FBF8F0FBF75AF9F9F7C7FDFAF715
:107D0000F7F8FCF71BFCFCF7EDFB0125182344A258
:107D1000042114200095FCF7B1FD002001F026FDA0
:107D20000446414901F0DFFF204601F083FEFCF7E5
:107D300059FBFCF77DFBFEF719F83C4C00286CD092
:107D4000FEF702FA01223AA13A48FFF7E1F93A4F69
:107D5000AE03A0B10D2814D000210C2337A2084691
:107D60000095FCF78BFD002231463846FAF700FFFC
:107D7000304836A12C38FFF7C3FAD0B13CE00122DD
:107D8000F2E7FCF7AFFB00210C2331A20846009577
:107D9000FCF774FD4FF40073314A002124A0FEF774
:107DA000FDFE0C232FA2012100200095FCF766FDAB
:107DB000E5E72049443901F11800FFF786FB1D4D26
:107DC0002C4E443D2C4F05F109090DE0687A98B11D
:107DD00096F90000494600EB800007EB8000F8F7B9
:107DE0000DFA3078401C30701249443901F1180006
:107DF000FFF76BFB0028E9D04046FAF7ABFDF9F737
:107E0000B1F8FCF76FFB1DA0FFF7C8FB0220607004
:107E100005202070FEF7EAF8FCE765700420F8E71B
:107E20004441504C696E6B00480300203400002030
:107E300000000000500600200010014046617466FA
:107E400073204661696C65642E2E0000303A000094
:107E5000466174667320466F726D61742E2E000049
:107E600080080020466F726D61742046696E6973E8
:107E70006865640009000020041F0020303A2F7755
:107E8000726974652E62696E000000002DE9104071
:107E900010F8013B11F8014B1B1B521E01D0002BA7
:107EA000F6D0184610BD002A05D011F8013B00F8A5
:107EB000013B521EF9D170475FFA81F100F8011BB6
:107EC000521EFBD1704700002DE9FF41002790466C
:107ED0000E460F60FFF7DCFD050003D50B2004B054
:107EE000BDE8F081874850F825409CB13460207887
:107EF00008F0FE0620B16078FEF783FDC1070BD0C5
:107F00002770E8B2B8466070FEF741FDC10708D09F
:107F10000320E4E70C20E2E70EB1400704D4002080
:107F2000DDE71EB1400701D50A20D8E70021204631
:107F3000FEF7DAF902281AD100256E4604EB051087
:107F400000F5FB70FFF7BFFE46F825006D1C042D01
:107F5000F4D3002556F8251029B12046FEF7C4F9C0
:107F6000022801D203E003206D1C042DF2D3042863
:107F70000AD0022874D204F13B00E76AFFF7AEFE94
:107F8000B0F5007F6CD101E00120A8E704F14600C4
:107F9000FFF7A4FE18B904F15400FFF794FEA061A6
:107FA00094F84060A670012E01D0022E58D14643AD
:107FB00094F83D006081B0B3411E084250D104F1F5
:107FC0004100FFF78BFE2081000749D104F14300F7
:107FD000FFF784FE050004D104F15000FFF773FEA3
:107FE000054604F13E00FFF779FE010038D02389F1
:107FF000881900EB1312954232D3A81A6589B0FB99
:10800000F5F080B1DFF800C10025604500D80325F8
:108010004FF6F57C604500D8022540F6F57C6045BA
:1080200002D8012501E01BE0D5B1801C3A44A262D0
:1080300039446061C4E90771032D13D083B1314421
:108040006162022D1FD000F0010100EB400001EB46
:10805000500000BFA16900F2FF10B1EB502F14D205
:108060000D203CE704F15A00FFF738FE0028F7D155
:1080700020890028F4D104F15C00FFF724FE60623F
:1080800060698000E6E74000E4E74FF0FF302061E0
:10809000E06080202071032D2CD104F16000FFF7F7
:1080A0001DFE012826D1791C204600F033F808BBBC
:1080B00084F8048004F22E20FFF710FEA0F52A4178
:1080C000553917D104F13000FFF7FDFD0F49884203
:1080D00010D104F50570FFF7F6FD0D49884209D16E
:1080E00004F50670FFF7EFFD206104F50770FFF758
:1080F000EAFDE06003492570091F0888401C0880DC
:10810000E0800CE7DC030020F5FFFF0F52526141D5
:108110007272416170B50446C06A0D460026A842DD
:108120000FD0204601F05AF806000AD160780123EA
:108130002A4604F13001FEF748FC08B1751E0126FD
:10814000E562304670BD000010B5104602994C0241
:1081500009490988A1F57F42FF3A05D0A2B2590228
:10816000FDF714FE204610BD4FF0106101EB4321D6
:108170002246F7F7F9FFF5E73A00002010B5104660
:1081800002994C020A490988A1F57F42FF3A05D0BD
:10819000A2B25902FDF774FE204610BD4FF01061E7
:1081A00001EB4323014622461846FFF703FBF3E7A2
:1081B0003A00002038B5044690F85E12002004F121
:1081C000280551B101292ED084F85E0229462046A7
:1081D000BDE838401F2200F043B8154AA16A914219
:1081E00003D1B4F858121F2917D0009094F8351015
:1081F00020230522204600F037FA94F8340028B9ED
:10820000206B18B1617A206801F0BCFD207A40F043
:108210008001206801F0B6FDD8E70648A064E06A56
:10822000E064206B20652046BDE83840FFF74CBC79
:108230005553424355534253084810B501884FF4F3
:108240000070A1F57F44FF3C186003D02820106027
:10825000002010BD4FF40040F9E700003A00002074
:1082600070B50D460446417A134600682A4601F06F
:1082700066FD617A2068BDE8704001F06BBDF8B51D
:1082800090F8371000274FF0FF3600F1370500F166
:108290005804232971D00FDC15291DD005DC09B342
:1082A000032934D0122917D153E01A2966D01B298B
:1082B00053D01E2910D15EE02F291DD006DC2529C0
:1082C00079D0282978D02A2906D1AAE0352913D0D7
:1082D000552901D05A2974D00097202390F83510E1
:1082E000052211E00446006A30B1826822B194F898
:1082F00035102046904708B10020F8BD009794F84B
:1083000035103A230222204600F0AEF903E007467A
:108310006878C00701D03046F8BD12212046F7F733
:108320003CFF207820F07F00703020700C20E0713E
:1083300097F85F12A07861F30300A07097F86002CD
:10834000207397F86102607328791228E4D912200B
:10835000F8BDBDE8F84000F069B829790A090AD1EA
:108360008A0708D5026A32B1536923B101F00102CC
:1083700090F8351098473846F8BD46E006468765C0
:10838000A07820F08000A070306A58B1C2684AB16D
:1083900096F83510304690470028A0780ED020F08F
:1083A0008000A07003202070042030652879042804
:1083B000E2D90420E0E72CE02FE002E040F080006A
:1083C000EFE787650646C765E07820F08000E0703B
:1083D000306A58B1C2684AB196F8351030469047B5
:1083E0000028E0780ED020F08000E070A771062011
:1083F000E071B5F80700082140BA31650828BBDBF9
:108400000820B9E740F08000EFE7BDE8F84000F051
:10841000F7B8BDE8F84000F0BDB8BDE8F84000F09E
:1084200083B8BDE8F84000F027B900002DE9F0411D
:10843000064600F1370558304FF0FF342421074637
:10844000F7F7ABFE306A60B1D0F810C0BCF1000F96
:1084500007D096F835103B462A463046E047041EC2
:1084600045DC6878C0071ED0A8787870A87820B15D
:1084700080280AD0832812D110E000203871802093
:10848000072478718320B87109E01AA00E240168CE
:1084900079604168B9600089B88100E00424200A4D
:1084A000B870FC701CE078783C4640F08000787032
:1084B0000220B870F878102220F00F00801CF870AD
:1084C0001F2038710EA00168B9604068F8600FA1E4
:1084D00004F11000F7F748FE11A000682062242480
:1084E000B5F80300346540BA844200DC2046BDE89C
:1084F000F081000054555342313233343536000098
:108500005465656E79555342000000004D53432079
:10851000424F542044454D4F2020202000000000B1
:10852000312E302000000000F8B5044600F1280587
:10853000006D00282DDDD5F811202B7D12BAE98AB7
:1085400022F0FF02AE681A4349BAB6FBF1F34FF4CA
:1085500000710746884200D23946B1FBF3F1301A68
:10856000A76989B24FF0FF3657B1B0FBF3F083181B
:108570000091697B04F158022046B847002808DAC8
:1085800000200090697B11230322204600F06CF844
:108590003046F8BD2DE9FC4100268665C665476971
:1085A000054600F1580407B395F8351001AB6A464B
:1085B0002846B847002818DB0098401E0090000E9F
:1085C00020700098000C60700098000AA07000985D
:1085D000E0700198010E2171010C6171010AA17115
:1085E000E07108202865BDE8FC81009695F83510FB
:1085F0003A230222284600F037F84FF0FF30F2E726
:108600002DE9FC4100268665C66506664769054674
:1086100000F15804EFB195F8351001AB6A462846D1
:10862000B847002815DB0820E0700098010E217182
:10863000010C6171010AA171E071022020720198A0
:10864000010C6172010AA172E0720C202865BDE87C
:10865000FC81009695F835103A230222284600F056
:1086600003F84FF0FF30F2E7009980F85F2280F8BE
:10867000603280F8611270472DE9F84F044600F12E
:10868000280600F14805373094F85E1200274FF0B5
:10869000FF3A4FF4007911B1012921D01DE0216A80
:1086A000012069B18A682AB1717B2046904748B1A0
:1086B000216A21B1CA6812B1717B2046904728B166
:1086C000A8683BE00097717B3A2332E00097717B0A
:1086D000272307222046FFF7C7FF5046BDE8F88F43
:1086E000D0F80210427909BA21F0FF011143B0F825
:1086F0000700B26840BAB2FBF0F0B4F85832D4F8D0
:108700001CC0B3FBF0F31FFA83F8BCF1000F0DD0CF
:10871000AB68CDF80080D21AB2FBF0F04318717B41
:1087200004F158022046E047002804DA0097717BE4
:1087300003230322CEE7A968081AA8604845CDD3D1
:108740004846CBE7054A826480F85410022180F83D
:108750005E120D2200F1480100F002B85553425359
:1087600038B5A0F85C2200230093047A13460A4629
:108770000068214601F022FA38BD2DE9F0470226B3
:1087800017460D460446022969D36069A84266D996
:1087900020784FF00109012804D0022836D00328A0
:1087A0005DD143E0216A05EB550801EB58212046D5
:1087B000FFF7B0FC060052D1C8F308002044303067
:1087C00008F10108E90704D00178FAB262F31F1139
:1087D00000E03946017084F80390216A204601EBDD
:1087E0005821FFF797FC060039D1C8F30800204450
:1087F0003030E90702D0C7F3071105E00178C7F36D
:10880000032201F0F0011143017026E0206A00EB21
:1088100015212046FFF77EFC060020D1E8B204EBCC
:108820004000B9B2303000F0B4F816E0206A00EB36
:10883000D5112046FFF76EFC060010D140F2FF1064
:1088400000EA8500204430300546FFF73CFA67F324
:108850001B000146284600F094F884F80390304647
:10886000BDE8F087F8B50F4604460A2902D10D216C
:10887000FFF7F8FF6568002D16DB6019A6686D1C10
:1088800007733C2D0DDB6B462A4604F10C01206872
:10889000FEF7CDFE0098A84201D1002501E04FF07F
:1088A000FF35761CC4E90156F8BD38B54268044668
:1088B000002A0CDB6B4604F10C012068FEF7B7FEC2
:1088C00028B960680099884201D1A06838BD4FF08E
:1088D000FF3038BD70B50D4604464C220021FFF72D
:1088E000EBFA256070BD2DE9F041056813460E4690
:1088F000074602292DD36869B0422AD93BB14FF00F
:10890000FF3219462846FFF738FF00281FD13146AD
:108910003846FFF729F8040018D0012C19D0601C44
:1089200019D0002231462846FFF727FF00280ED134
:10893000D5E90410821E914205D2491C296129798A
:1089400041F0010129712646B042E0D80020BDE87F
:10895000F0810220FBE70120F9E770B50C460646DE
:10896000154691B204F11A0000F013F8307803288C
:1089700006D1290C04F11400BDE8704000F009B8DC
:1089800070BD0170090A4170090A8170090AC1703D
:1089900070470170090A4170704710B51E21002010
:1089A00000F070FB002800D0012010BD2DE9F0433D
:1089B00093B00F46DDE91A8904461E461546442148
:1089C0006846F7F7EAFB8DE8600360680990A068E5
:1089D0000D902068CDE90E074FF08070109068462A
:1089E00000F00CFB00282ED0194E1A4D002411A9BE
:1089F000284600F06BF928B31198800309D5154873
:108A000000216F460C466426001D00F08FFBC8B1A4
:108A100003E0641CB442EAD314E03946284600F06F
:108A200055F978B10098C00302D4641CB442F4DB59
:108A3000B44207D007483946083000F047F908B17A
:108A4000009818B1002013B0BDE8F0830120FAE7C8
:108A500040420F00F0ED00E0F8B500202349044645
:108A60000090401E0860486064250121002000F04D
:108A700009FBFAF757FE002828D01E21002000F03D
:108A800001FB002822D0FFF788FF00281ED000211C
:108A9000082000F0F7FA002818D04FF0A041042079
:108AA00000F0F0FA002811D04FF02046694604206B
:108AB00000F0B0F8002809D0009836EA000002D093
:108AC000641CAC42F2DBAC4201D10020F8BD084985
:108AD000042000F0D7FA0028F8D00021082000F088
:108AE000D1FA0028F2D00120F8BD00004C0000208F
:108AF000000F00501FB500200190029040F6036067
:108B000000900220039069460248F9F735FF04B04F
:108B1000012010BD000C0140F8B50E46054662B3B9
:108B200094081749002000F0B1F9002826D0052745
:108B3000042229466846FFF7A7F86946384600F040
:108B400095F9012819D10F270021384600F08EF938
:108B5000012812D10025641E07E03146384600F096
:108B600085F9012809D16D1C361DA542F5D30E20CB
:108B7000314600F07BF9012800D00020F8BD00004C
:108B80005200002338B50C4605460949002000F084
:108B90007DF900280BD06946284600F00BF8002824
:108BA00005D0A807C10E0098C8402070012038BD2C
:108BB000500000231CB50C460146042201A8FFF713
:108BC00063F8052001A900F051F9012820D10F20F8
:108BD000694600F04BF901281AD10E20694600F0D1
:108BE00045F9002222609DF8031042EA01622260EA
:108BF0009DF8021042EA014121609DF8012041EAFE
:108C0000022121609DF8002011432160012800D03D
:108C100000201CBD38B50C4600F00C006946801CD5
:108C200000F024F9002121609DF8032041EA02614F
:108C300021609DF8022041EA024121609DF8012057
:108C400041EA022121609DF80020114321600128A2
:108C500000D0002038BD00002DE9F04114460F4639
:108C6000054608E039462846FFF78CFF002829D042
:108C7000641E6D1C7F1C24B3A807F3D1DFF8488065
:108C8000032C1CD9D8F80000411E2940461AB442D2
:108C900001D224F00306324639462846FFF73CFF4E
:108CA00000280FD035443744A41BE9E7394628464D
:108CB000FFF768FF002805D0641E6D1C7F1C002C88
:108CC000F4D10120BDE8F0814800002070B50C46C9
:108CD00005460749002000F0D9F8002806D02146B3
:108CE0002846FFF767FF002800D0012070BD000074
:108CF000520000231CB500206946FF220A54401C84
:108D0000C0B20828FAD33320FCF7C6FB01201CBDF3
:108D1000002807D104480168044A01F4E0611143C6
:108D200000F004BA704700000CED00E00400FA0502
:108D3000F8B54C4902244E1C4B4D072872D2DFE88F
:108D400000F004170856587288000120FFF7E0FF72
:108D50007DE00120FFF7DCFF1420FDF7D1FC0020AF
:108D6000FFF7D6FF1420FDF7CBFCFFF7C3FE6EE044
:108D7000FFF772FE00286BD00FE0641E64B2002C77
:108D80006EDD0120FFF7C4FF1420FDF7B9FC0020C1
:108D9000FFF7BEFF1420FDF7B3FC3146284600F074
:108DA000C5F90028E9D0304C01210C34204600F0F0
:108DB000BDF900284CD00120FFF7AAFF1420FDF7D1
:108DC0009FFC0020FFF7A4FF1420FDF799FC6946E3
:108DD0002846FFF77BFF00283AD000988003F6D59D
:108DE0000021204600F0A2F9002831D02FE02846CB
:108DF000F8E7FAF797FC00282AD01E21002000F09F
:108E000041F9002824D00021082000F03BF9002877
:108E10001ED04FF0A041042000F034F9002817D0F4
:108E20003146E4E71CE0FFF717FE002810D00D499B
:108E30002846C91C00F07AF9002809D0694628465E
:108E4000FFF744FF002803D000988003F6D50120E7
:108E5000F8BD284600F06AF90028F9D0FFF74AFE6D
:108E60000020F8BD00005FA0F0ED00E070B50D46F9
:108E70000646002429463046FBF7D4FE022803D1DB
:108E8000641CE4B20A2CF5D370BD000038B50D4661
:108E9000044600F07F4100F0F0000143082000F09C
:108EA000F1F8002805D034B90E484168A94201D133
:108EB000012038BD456004F00C04042229466846B0
:108EC000641CFEF7E1FE69462046FFF7CFFF01284C
:108ED00005D10E200021FFF7C9FF0128E9D00020AD
:108EE00038BD00004C000020F8B50D4604462AB3FA
:108EF000960813490020FFF7C9FF00281FD0052757
:108F0000042221466846FEF7BFFE69463846FFF751
:108F1000ADFF012812D10D27002407E0294638466D
:108F2000FFF7A4FF012809D1641C2D1DB442F5D31D
:108F30000E200021FFF79AFF012800D00020F8BD85
:108F40005200002370B50C46054608490020FFF783
:108F50009DFF002809D0A807C00E04FA00F128469A
:108F600000F02CF8002800D0012070BD5000002334
:108F700073B50646002464250F48019900F0D6F821
:108F8000002813D00C4846F48031001F00F0CEF8C2
:108F900000280BD0084E083E01A93046FFF796FE88
:108FA000002803D00198C00301D501207CBD641CBA
:108FB000AC42F1DB00207CBDF8ED00E038B50C469A
:108FC000014604226846FEF75FFE05206946FFF76A
:108FD0004DFF012810D1042221466846FEF754FEB9
:108FE0000D206946FFF742FF012805D10E20002120
:108FF000FFF73CFF012800D0002038BD38B50546FA
:109000000021082000F03EF8002834D05FF0000472
:10901000204655F82410FFF7ABFF00282BD0641C26
:10902000042CF5D30920696AFFF7A2FF002822D09B
:109030005FF00D04204655F82410FFF799FF002833
:1090400019D0641C102CF5D31020296CFFF790FF69
:10905000002810D009490A4800F068F800280AD012
:1090600069460420FFF7D6FD002804D0009810F0D0
:10907000A00F01D0002038BD012038BD01005FA045
:10908000F0ED00E038B5082806D10A4A13688B4293
:1090900001D1012038BD116000F00C0404226846A3
:1090A000FEF7F2FD69462046FFF7E0FE0128F1D009
:1090B000002038BD4C0000202DE9F04114460E463A
:1090C000054608E031782846FFF73CFF002829D004
:1090D000641E6D1C761C24B3A807F3D1DFF848800A
:1090E000032C1CD9D8F80000411E2940471ABC4265
:1090F00001D224F003073A4631462846FFF7F4FE32
:1091000000280FD03D443E44E41BE9E7317828466F
:10911000FFF718FF002805D0641E6D1C761C002C7C
:10912000F4D10120BDE8F0814800002070B50C4664
:10913000054607490020FFF7A9FE002806D0214672
:109140002846FFF73BFF002800D0012070BD00003B
:109150005200002370B5044600F040F8050036D1F7
:10916000207803282CD12079012829D1420204F14A
:10917000300000210646FEF79FFE4AF6552104F214
:109180002E20FFF706FC13493046FFF7FAFB124981
:1091900004F50570FFF7F5FB04F506702169FFF78C
:1091A000F0FB04F50770E168FFF7EBFBE2690123D0
:1091B000521CE26260783146FDF72BFC00202071E2
:1091C000002260781146FDF7E9FB00B10125284631
:1091D00070BD0000525261417272416170B5044627
:1091E000C078002548B104F13001607801230E46B3
:1091F000E26AFDF70EFC10B10125284670BD002083
:10920000E070E16A206A0A1AA0698242F5D2A27867
:10921000022AF2D10A18607801233146FDF7F9FBE2
:10922000EBE700001CB50024094800940194007885
:109230002346C0EBC0010748224600EBC100C168CD
:109240001830FFF7B3FB08B120461CBD0A201CBD37
:1092500054000020C43900207CB506460120FFF7E9
:1092600067FDE8B1114C124D2078C0EBC00005EB52
:10927000C000D0E90B21806AFFF71EFF90B10020EB
:109280000090019020780023C0EBC00005EBC000E7
:10929000324641681830FFF789FB28B100207CBDB9
:1092A00003207CBD04207CBD06207CBD5400002032
:1092B000C43900202DE9FC47154689468046174EE3
:1092C000174F21E03078C0EBC00007EBC000446BC3
:1092D000AC4200D32C46406A22464946FFF7ECFEDA
:1092E000B8B130780022C0EBC00007EBC000416A83
:1092F000CDE90012436B416942461830FFF756FB37
:1093000048B1A044A1442D1B002DDBD10020BDE8B5
:10931000FC870520FBE70B20F9E700005400002044
:10932000C439002010B50220FFF702FDFFF7E2FB71
:10933000002010BD1CB50024094800940194007859
:109340002346C0EBC0010748224600EBC100C168BC
:109350001830FFF72BFB08B120461CBD0A201CBDAE
:1093600054000020C43900207CB50120FFF7E0FC48
:10937000E8B1124C124D2078C0EBC00005EBC000E4
:10938000D0E90B21806AFFF797FE90B10020009092
:10939000019020780023C0EBC00005EBC0001A4606
:1093A00041681830FFF702FB28B100207CBD032084
:1093B0007CBD04207CBD06207CBD00005400002044
:1093C000C43900201CB500200090019008480023FB
:1093D0001A460078C0EBC001064800EBC100816866
:1093E0001830FFF7E3FA08B100201CBD06201CBDB1
:1093F00054000020C43900200448018821F00401F1
:1094000001804FF41C41018070470000405C004027
:1094100010B50446008B617A83B26269206800F05F
:109420008EFC617A206800F095FC0020E072A07A42
:1094300030B1042804D82168496801EB80008464B5
:10944000002010BD30B4C46811461CB1A44630BC25
:109450001A46604730BC002070470000F8B50D4642
:1094600004680978C1F341136268012B01D0002020
:10947000F8BDEB88EBB1090612D50C321646294629
:10948000FCF7D0FEEB88E08C834201D0802000E026
:109490000020324600900021204600F08FFB06E0BD
:1094A000002120460C3200F04AFC06486061012091
:1094B000F8BD29460C32FCF7B5FE002003460246F3
:1094C0000090E8E78F620008027A8A4202D10169BF
:1094D00029B10847827A8A4201D10021C172002055
:1094E0007047406888B10A7802F00302012A0CD163
:1094F0008A880368934208D9406850F8220020B156
:10950000426812B1526802B1104700207047000053
:10951000F0B511F07F0F48F2C0064CF280044BF614
:109520008F7548F2800348F68F7218D00F064FEA05
:1095300041601E4901EBD050B0F8001C25D549060A
:1095400005D5B0F8001C11403143A0F8001CB0F85C
:10955000001C48F6BF72114081F0300122E014482F
:109560000188490603D501881140314301800188F3
:10957000490403D501881140214301800188294015
:1095800081F4405119430180F0BD490405D5B0F87C
:10959000001C11402143A0F8001CB0F8001C294019
:1095A00081F440511943A0F8001CF0BD0050004068
:1095B000005C0040002104E00222521CC82AFCD3B7
:1095C000491C8142F8D370470B48816941F004017E
:1095D00081610A48016841F480210160016821F439
:1095E00000210160016841F44031016003498014A9
:1095F000103108607047000000100240040801406C
:109600002DE9F04180461F480E4600EB8105B5F874
:10961000004C20040AD540F68F77A6B104EA070073
:10962000A5F8000C3146404600F076FA200627D512
:1096300048F60F700440A5F8004C31464046BDE89E
:10964000F04100F0FDBA200508D508F120014046A0
:1096500000F046FA404600F0BFFB03E031464046CA
:1096600000F05AFA084804EA070101804BF68F71AE
:10967000214081F4405148F2800211430180D5E736
:10968000BDE8F08100500040005C0040F8B50446A1
:1096900048880E460025010A082961D2DFE801F05A
:1096A00060040A1060601C37D4F88C00016810E078
:1096B0000D783AE0D4F88C004168E9B34D8834E085
:1096C000D4F88C10C0B2CA68824249D9896851F86E
:1096D00020100029ECD143E021680A20087021689D
:1096E00006204870D4F88C1020680968D1F8022050
:1096F000C0F80220C988C180D4F88C0021680068B5
:10970000407C0872216800200A2548720BE0D4F8DA
:109710008C00416801B14D8820682A46F6F724FD87
:10972000216807204870216831B1F088A84200D82C
:1097300005462068884200E012E003D02A46F6F78A
:1097400013FD2168E08CA84201D0802000E00020B9
:109750000A4600902B460021204600F02FFAF8BD63
:109760002046BDE8F840002100F00CBB024800F59F
:109770008071086008467047D437002010B5044651
:10978000808C617A83B2226A206800F0D8FA617A0C
:109790002068BDE8104000F0DDBA30B4C46811465E
:1097A0001CB1A44630BC1A46604730BC002070474C
:1097B000F8B504680A7802F003036668012B22D129
:1097C0004B78062B1FD14B882225B5EB132F1AD1CE
:1097D000038E876A9DB2B7B1ADB1C888A84200D8E0
:1097E00005462068B84204D02A463946F6F7BCFC44
:1097F0002768E08CA84201D0802000E000202B46A2
:109800003A46009016E0C2F34112012A53D14A7839
:1098100000250C2A4FD2DFE802F04E3712154E4ECB
:109820004E4E4E28061C4988090A80F8341013E071
:10983000884714E00021204600F0C0F922E090F8AB
:1098400034003073E08C01280DD08020012300907B
:109850002EE0897880F83510C1690029E8D100230D
:109860001A460095E6E70020F0E7CB880021204665
:1098700006F10C0200F063FA0021204600F06AFABB
:109880000E4860610120F8BD638C8569DAB21F0A59
:10989000002335B1C988009106F10C033946A84769
:1098A00083B2E08C984201D0802000E0002000903C
:1098B00006F10C02BEE70020F8BD00002F7B000877
:1098C000016901B108470020704710B504461F2206
:1098D00000F12801FEF7C4FC002084F85E02206A33
:1098E000002806D00168002903D02046BDE81040BA
:1098F000084710BD70B50446B0F85802002520B1E5
:109900002046FEF757FCA4F85852B4F85A02002833
:109910000ED094F85E12204641B1012909D080F89A
:109920005E521F2200F12801FEF79AFCA4F85A5259
:1099300070BDB0F85C22016D891A0165FEF7C4F8AC
:10994000F4E730B4A0F85832C46811461CB1A446FC
:1099500030BC1A46604730BC0120704738B5044619
:10996000006842680878C0F34113012B04D14B789A
:10997000FE2B03D0FF2B18D0002038BD4B8893B9A5
:10998000C98801290FD100060DD5A07A107320686F
:10999000C18C012901D0802100E000210091012328
:1099A00000210C3213E0012038BD4A884AB9C98829
:1099B00039B9000605D4206A18B1416809B12046BA
:1099C00088470020002300901A461946206800F0BE
:1099D000F5F8E8E710B5B0F85C12A0F85A12016982
:1099E00001B18847002010BD30B440684C060CD04F
:1099F00001F07F0400EB8400806D30B1446824B135
:109A0000E46814B1A44630BC604730BC0020704705
:109A100040684A060DD001F07F0200EB8200806CA6
:109A2000002806D04268002A03D09268002A00D09D
:109A30001047704710B5FFF7C7FD1420FFF7BAFDB8
:109A4000164AD06940F40000D06115480121018018
:109A500000210180031D1C886405FCD51980104B72
:109A6000103319804FF41C410180906940F00400CC
:109A700090610C48016841F480210160016821F483
:109A800000210160016821F4403101604FF0E021C4
:109A90004FF48010C1F8000110BD0000001002401A
:109AA000405C00400408014030B5888809880B4BB1
:109AB0004908C0F3090003EB8103411C4D08002451
:109AC00008E000BF33F8041B02F8011B090A02F882
:109AD000011B641CAC42F5D330BD000000600040A7
:109AE0000A460149FFF7E0BF0860004070B54568CD
:109AF000002D10D0A9688847002409E0686850F854
:109B0000240020B1416811B1096801B18847641C83
:109B10002868A042F2D870BD2DE9F0470D460746EF
:109B200001EB850007EB8004224800EB81008146B1
:109B3000B0F8008C204800EB0516E06A2834F8B134
:109B4000F6B1A189421831463846FFF7ADFFB1881A
:109B50006FF30901B180A18901448BB2A381B96976
:109B6000495D814202D16089834209D30026C5B193
:109B7000294638466268FFF737FFC8B16089A0817F
:109B8000A089618988420AD24BF68F7108EA0100E8
:109B900080F4405048F280010843A9F8000CBDE869
:109BA000F087796911B1384688477E616660E7E7DA
:109BB000A681E5E700500040086000402DE9FC4127
:109BC0001E460B468C001C49089F6518B5F8004CD2
:109BD00003EB830100EB81014FEAD71C31F8387F9A
:109BE0006CF3000721F810794FF0FF37B1F808C087
:109BF000BCF1000F04D1C4F3011CBCF1020F02D070
:109C00003846BDE8FC8100274F82C769FF5CCDE97B
:109C100000670A4E06EB031613463246FCF7C6FBF6
:109C200048F6BF70044084F0300048F280010843D9
:109C3000A5F8000C0020E4E7005000400060004060
:109C40002DE9FC411F4A044602EB810501EB81002E
:109C5000B5F8002C04EB8000002646871A4A038ED4
:109C600002EB011228304BB9077CFF071DD0D4F856
:109C70001CC0C7891CF801C0674516D1E669715C34
:109C8000CDE90031014603682046FCF78FFBB5F8AB
:109C9000000C48F6BF71084080F0300048F28001A7
:109CA0000843A5F8000CBDE8FC8121B12046BDE8C1
:109CB000FC41FFF7ADBE21690029F4D0204688475A
:109CC0002661F0E70050004000600040017A002962
:109CD00005D0034A41F080011180002101727047D4
:109CE0004C5C0040704710B50022CA640A654A65A2
:109CF0008A65CA650A664A6613468A661AE04A6831
:109D000052F82320AAB11468844200D01060147A5B
:109D100034B104F07F04042C02D801EB8404A26463
:109D2000547A34B104F07F04042C02D801EB84048B
:109D3000A2655B1C0A689A42E1D8416010BD01EB44
:109D4000810100EB81000021C262438681860846C2
:109D5000704700000A4A02EB8103B3F8002C01EBC4
:109D6000810100EB8100002181864BF68F7002405B
:109D700082F4405048F280010843A3F8000C704779
:109D80000050004010B511F07F0F48F6BF7348F245
:109D900080020CD00C064FEA41600D4901EBD05017
:109DA000B0F8001C0BD5194081F010010CE00949F6
:109DB0000888184080F010001043088010BD4BF652
:109DC0008F73194081F480511143A0F8001C10BD1D
:109DD00000500040005C004070B500F120050446D2
:109DE0002946FFF77EFB002805D129462046BDE81D
:109DF000704000F001B870BD38B504464A780025BF
:109E000037480C2A6AD2DFE802F01351693A690632
:109E10000E691E273137887820722046FFF762FFCF
:109E2000304820611AE02046BDE83840FFF72EBCDC
:109E3000A1890160E08C022801D0802000E0002090
:109E40000223009006E0617A11E0802000E000200B
:109E500001230090224A04E08878607200231A46A9
:109E6000009500212046FFF7A9FE38BDA17A0160C8
:109E7000E08C0128EBD0E8E78878A072EEE708785C
:109E800000F00300022803D0488801280AD025E00A
:109E9000097901F07F00052820D22046BDE838402E
:109EA000FFF770BFE07A40F0010015E0087800F09D
:109EB0000300022803D0488801280AD00EE009795F
:109EC00001F07F00052809D22046BDE83840FFF7A1
:109ED0001FBBE07A20F00100E072BFE70021DCE761
:109EE00058000020CD9C000838B50A4C2078002886
:109EF0000FD00949A1F14100F7F720FB07480025E1
:109F00000095017A00684023034AFFF757FE257049
:109F1000012038BD02000020C10A00205C000020A2
:109F20002DE9F0411F4D204E0024287820B106284D
:109F300017D0072832D11FE01C4F3878012801D1F3
:109F4000307808B12C7029E0012030704022184987
:109F50001848F6F709F906202870174804703C7075
:109F60001CE041211548F6F718F914491148F7F794
:109F7000E5FA0720287011E04FF47A773B4640223B
:109F80000E490F48F9F714FA0028F7D10D4808498F
:109F900002780B48F9F7BEF92C7034700020BDE848
:109FA000F0810000030000200200002037000020A4
:109FB00048220020800A002036000020C10A00202C
:109FC0008C220020380000202DE9F843244C254E37
:109FD0000025207848B1022701280DD0DFF88880BD
:109FE000022818D0082838D127E0307810B1012095
:109FF000207032E0257030E04FF47A752B46402215
:10A000001A491B48F9F7D4F90028F7D1402119481B
:10A01000F6F7C3F803E0184E3078012801D0277016
:10A020001BE098F8002015491248F6F79DF8082023
:10A0300020701348057035700FE0124800954023DA
:10A04000017A00680B4AFFF7B9FD2570357098F862
:10A0500000200A490648F9F75DF90020BDE8F883B9
:10A06000040000200200002038000020800A0020A8
:10A070008C220020C10A0020370000204822002046
:10A08000360000205C00002070B50E4604004FF042
:10A0900009050CD0206850B1017841B1A188C2886F
:10A0A000914204D14078FCF7ACFCC00703D00020FB
:10A0B0003060284670BD00252068F9E74FF4801015
:10A0C000064902E0002803DD401ECA68D207F9D124
:10A0D000C868800601D52020C86070470020024073
:10A0E000220024002FF03A80EA802A802A802A80E9
:10A0F0002A902FF02000000019202B20CD40114085
:10A10000001012101220FFC024A0A51064700000DF
:10A11000040008003FF0C00020102060BF806400F1
:10A120002410241027E00000004040405FD055601C
:10A130005540F540554055605FD04040004000001C
:10A1400011001600FFF0120040505F50F56055C03E
:10A15000F5605F504050000010101210121013E014
:10A16000122012201020FF0010C09020507000001C
:10A1700000107FE049107FF000109E2053C01200B5
:10A1800053E09E100030000011001600FFF0141084
:10A1900002207FC0400040007FE0001000700000FF
:10A1A0001E100060FF80106021102520F5C04900BE
:10A1B00055E045101D30000008208A20A940A880E5
:10A1C000A910AFF0A900A880F9400A2008200000DB
:10A1D00011001600FFF0120040505F50F56055C0AE
:10A1E000F5605F504050000010101210121013E084
:10A1F000122012201020FF0010C09020507000008C
:10A2000000000200421042607F8042004200420093
:10A210007FF0420042000200000011101EA0F0403A
:10A220001FB000001BF02A20CA200A201BF00C00DF
:10A2300000001E100060FF80106021102520F5C076
:10A24000490055E045101D30000008208A20A94033
:10A25000A880A910AFF0A900A880F9400A20082022
:10A260000000080088004FE000400A10F31082A0B0
:10A270008240F2A00B10081000000810E810ABF0AC
:10A28000AA10EA10BE70EA10AA10ABF0E81008108D
:10A29000000000103FE02400244027D02020FF4091
:10A2A0002080A140662020F00000204020403F8018
:10A2B000209020A010C0FF001000101010101FE010
:10A2C0000000000000007CC07CC000000000000016
:10A2D000000000000000000000001E100060FF8071
:10A2E000106021102520F5C0490055E045101D30B3
:10A2F000000008208A20A940A880A910AFF0A9007A
:10A30000A880F9400A200820000000103FE0240047
:10A31000244027D02020FF402080A140662020F04C
:10A320000000204020403F80209020A010C0FF006F
:10A330001000101010101FE004104420444044800E
:10A3400047007C0047E044104410441004700000B3
:10A3500019202B20CD401140001012101220FFC0F8
:10A3600024A0A510647000007020104011901E10F1
:10A37000F32012A0124092A05320101010100000E1
:10A3800001207F40D58055107FF000001200119011
:10A390001010FFF010000000972050A017400000A0
:10A3A00075F0150015E0F70015E0151075F00000C8
:10A3B000041044204440448047007C0047E044109F
:10A3C000441044100470000019202B20CD4011408F
:10A3D000001012101220FFC024A0A510647000000D
:10A3E00011001110FFF0120025103550ADD067207C
:10A3F0002D2035D0251000007FC000800100FFF027
:10A4000004100820F740108011401E20101000009A
:10A41000972050A01740000075F0150015E0F700D8
:10A4200015E0151075F000000000000000000000AD
:10A43000002F000000000700070000147F147F14A5
:10A4400000242A7F2A12006264081323003649552B
:10A45000225000000503000000001C224100000003
:10A4600041221C000014083E08140008083E080899
:10A47000000000A0600000080808080800006060F4
:10A480000000002010080402003E5149453E000033
:10A49000427F4000004261514946002141454B3115
:10A4A000001814127F10002745454539003C4A49E1
:10A4B0004930000171090503003649494936000653
:10A4C0004949291E000036360000000056360000BB
:10A4D0000008142241000014141414140000412236
:10A4E000140800020151090600324959513E007C0E
:10A4F0001211127C007F49494936003E41414122F8
:10A50000007F4141221C007F49494941007F0909E0
:10A510000901003E4149497A007F0808087F000090
:10A52000417F4100002040413F01007F081422414B
:10A53000007F40404040007F020C027F007F040803
:10A54000107F003E4141413E007F09090906003E5F
:10A550004151215E007F0919294600464949493188
:10A560000001017F0101003F4040403F001F2040AB
:10A57000201F003F4038403F006314081463000769
:10A580000870080700615149454300007F414100C0
:10A5900000552A552A55000041417F000004020160
:10A5A000020400404040404000000102040000203E
:10A5B00054545478007F484444380038444444207C
:10A5C00000384444487F00385454541800087E0929
:10A5D00001020018A4A4A47C007F080404780000F1
:10A5E000447D4000004080847D00007F10284400AE
:10A5F0000000417F4000007C04180478007C0804BF
:10A60000047800384444443800FC242424180018FA
:10A61000242418FC007C08040408004854545420E6
:10A6200000043F444020003C4040207C001C20406F
:10A63000201C003C4030403C004428102844001CB2
:10A64000A0A0A07C004464544C44141414141414AA
:10A6500000000000000000000000000000000000FA
:10A6600000000000000000000000000000000000EA
:10A67000FC000000000002000000000C020C0200C0
:10A6800000000000000090D0BCD0BC90000300038C
:10A6900000001824FE448C00030207020100182465
:10A6A000D8B04C80000300010201C038E438E0005B
:10A6B0000102020102020806000000000000000082
:10A6C0000000000000F80402000000010204000283
:10A6D00004F800000004020100009060F86090009F
:10A6E0000000010000002020FC20200000000100EC
:10A6F000000000000000000008060000000020200C
:10A7000020202000000000000000000000000000E9
:10A710000002000000000080601C02000403000032
:10A720000000F8040404F80001020202010000081D
:10A73000FC000000000203020000188444241800FA
:10A7400003020202020008042424D80001020202CB
:10A75000010040B088FC80000000000302003C249F
:10A760002424C400010202020100F824242CC000A9
:10A770000102020201000C04E41C040000000300BA
:10A780000000D8242424D800010202020100384429
:10A790004444F80000030202010000001000000021
:10A7A0000000020000000000200000000000060081
:10A7B0000000002050880402000000000102909078
:10A7C00090909000000000000000000204885020DB
:10A7D0000002010000001804C42418000000020058
:10A7E0000000F804E494F80001020202020000E014
:10A7F0009CF0800002030000030204FC2424D80023
:10A80000020302020100F80404040C000102020227
:10A81000010004FC0404F80002030202010004FC2D
:10A8200024740C0002030202030004FC24740C00D4
:10A83000020302000000F0080444CC4000010202C0
:10A84000010004FC2020FC040203000003020404B5
:10A85000FC040400020203020200000404FC0404DD
:10A8600006040403000004FC24D00C0402030200CC
:10A87000030204FC04000000020302020203FC3C89
:10A88000C03CFC0003000300030004FC30C4FC04D3
:10A89000020302000300F8040404F80001020202AB
:10A8A000010004FC24241800020302000000F884C4
:10A8B0008404F80001020207050004FC24649800E7
:10A8C000020302000302182424448C000302020243
:10A8D00001000C04FC040C0000020302000004FC54
:10A8E0000000FC04000102020100047C80E01C0462
:10A8F0000000030000001CE03CE01C00000300031B
:10A900000000049C609C0400020300030200041C7D
:10A91000E01C04000002030200000C84641C04001C
:10A920000203020203000000FE020200000007040E
:10A930000400000E30C00000000000010200000210
:10A9400002FE0000000404070000000402040000EE
:10A9500000000000000000000000000008080808D7
:10A960000808000002000000000000000000004095
:10A97000A0A0C00000010202030204FC2020C000CD
:10A9800000030202010000C020206000000102025A
:10A99000020000C02024FC0000010202030200C0EB
:10A9A000A0A0C0000001020202000020F82424043C
:10A9B0000002030202000040A0A0602000070A0A73
:10A9C0000A0404FC2020C00002030200030200204D
:10A9D000E4000000000203020000000020E4000088
:10A9E00008080807000004FC80E0202002030200A1
:10A9F00003020404FC000000020203020200E02043
:10AA0000E020C00003000300030020E02020C0007D
:10AA100002030200030200C02020C0000001020265
:10AA2000010020E02020C000080F0A02010000C041
:10AA30002020E0000001020A0F0820E04020200052
:10AA40000203020000000060A0A020000002020239
:10AA500003000020F820000000000102020020E0B6
:10AA60000020E00000010202030220E020806020BC
:10AA70000000030100006080E0806000000300032C
:10AA8000000020608060200002030003020020E03C
:10AA9000208060200808070100000020A06020003E
:10AAA000000203020200000020DE02000000000796
:10AAB0000400000000FF00000000000F0000000282
:10AAC000DE2000000004070000000201020404026E
:10AAD0000000000000000000000000000000000076
:10AAE000000000000000000000F80000000000006E
:10AAF00000333000000000100C06100C06000000AF
:10AB000000000000000040C07840C0784000043FD2
:10AB100004043F040400007088FC083000000018A2
:10AB200020FF211E0000F008F000E01800000021C6
:10AB30001C031E211E0000F00888700000001E216A
:10AB400023241927211010160E0000000000000019
:10AB5000000000000000000000E0180402000000F7
:10AB600000071820400000020418E0000000004028
:10AB7000201807000000404080F0804040000202A2
:10AB8000010F01020200000000F0000000000101BE
:10AB9000011F01010100000000000000000080B062
:10ABA0007000000000000000000000000000000134
:10ABB000010101010101000000000000000000305F
:10ABC00030000000000000000000806018040060F9
:10ABD00018060100000000E010080810E000000F57
:10ABE000102020100F00001010F8000000000020BE
:10ABF000203F202000000070080808887000003006
:10AC000028242221300000300888884830000018AD
:10AC1000202020110E000000C02010F800000007C6
:10AC20000424243F240000F808888808080000193C
:10AC3000212020110E0000E0108888180000000F6D
:10AC4000112020110E0000380808C8380800000044
:10AC5000003F000000000070880808887000001C99
:10AC6000222121221C0000E010080810E000000052
:10AC7000312222110F00000000C0C00000000000BF
:10AC800000303000000000000080000000000000E4
:10AC900080600000000000008040201008000001DB
:10ACA000020408102000404040404040400004049E
:10ACB0000404040404000008102040800000002068
:10ACC000100804020100007048080808F0000000A5
:10ACD000003036010000C030C828E810E000071836
:10ACE000272423140B000000C038E0000000203CA3
:10ACF00023020227382008F8888888700000203F47
:10AD0000202020110E00C03008080808380007185D
:10AD100020202010080008F808080810E000203F54
:10AD2000202020100F0008F88888E8081000203F35
:10AD300020202320180008F88888E8081000203F09
:10AD4000200003000000C030080808380000071881
:10AD50002020221E020008F808000008F808203F02
:10AD6000210101213F20000808F808080000002008
:10AD7000203F2020000000000808F8080800C080DC
:10AD800080807F00000008F888C028180800203F55
:10AD900020012638200008F8080000000000203FAD
:10ADA00020202020300008F8F800F8F80800203FA4
:10ADB000003F003F200008F830C00008F808203F9E
:10ADC000200007183F00E01008080810E0000F10EE
:10ADD000202020100F0008F808080808F000203F85
:10ADE000210101010000E01008080810E0000F1820
:10ADF000242438504F0008F8888888887000203F45
:10AE00002000030C30200070880808083800003843
:10AE1000202121221C00180808F80808180000004A
:10AE2000203F2000000008F808000008F808001F74
:10AE3000202020201F000878880000C83808000063
:10AE400007380E010000F80800F80008F800033C7D
:10AE50000700073C03000818688080681808203045
:10AE60002C03032C30200838C800C8380800000024
:10AE7000203F2000000010080808C83808002038CB
:10AE8000262120201800000000FE0202020000001F
:10AE9000007F40404000000C30C000000000000077
:10AEA00000010638C00000020202FE00000000405F
:10AEB00040407F0000000000040202020400000085
:10AEC0000000000000000000000000000000808082
:10AED000808080808080000202040000000000006A
:10AEE0000000000000000000808080800000001949
:10AEF000242222223F2008F8008080000000003F2A
:10AF0000112020110E000000008080800000000E43
:10AF1000112020201100000000808088F800000E21
:10AF2000112020103F200000808080800000001F42
:10AF3000222222221300008080F0888888180020B6
:10AF4000203F202000000000808080808000006B77
:10AF500094949493600008F8008080800000203F63
:10AF6000210000203F200080989800000000002071
:10AF7000203F20200000000000809898000000C0C2
:10AF80008080807F000008F8000080808000203FE3
:10AF900024022D302000000808F8000000000020E6
:10AFA000203F202000008080808080808000203F23
:10AFB00020003F20003F8080008080800000203FF4
:10AFC000210000203F200000808080800000001FC2
:10AFD000202020201F00808000808000000080FF53
:10AFE000A12020110E000000008080808000000E53
:10AFF000112020A0FF8080808000808080002020A1
:10B000003F2120000100000080808080800000330C
:10B01000242424241900008080E0808000000000A7
:10B02000001F202000008080000000808000001FA2
:10B03000202020103F208080800000808080000140
:10B040000E300806010080800080008080800F3074
:10B050000C030C300F0000808000808080000020F6
:10B06000312E0E3120008080800000808080808121
:10B070008E70180601000080808080808000002192
:10B08000302C2221300000000000807C02020000F1
:10B090000000003F404000000000FF0000000000F2
:10B0A0000000FF0000000002027C80000000004061
:10B0B000403F0000000000060101020204040000FD
:10B0C0000000000000000000000000000000000080
:10B0D0000000000000000000000000000000000070
:10B0E000000000000000000000000000000000F070
:10B0F000F0F0000000000000000000017F010000EF
:10B10000000000000000001C1C1C000000000000EB
:10B110008060301C8C60301C0C00000000000000BF
:10B12000000000000000000000000000000000001F
:10B130000000000000E00000000000E000000086C9
:10B14000E69F86868686E69F860000011F01010134
:10B1500001011F010100000080C06020F820E0C054
:10B160000000000003070C18FF70E18100000000E0
:10B17000070F10107F100F07000080602060800014
:10B180000000E02000000F3020309F70DC371030CE
:10B19000C0000000100E0300071810180700000080
:10B1A000C02020E0C0000000000080E01F38E887D9
:10B1B00003C43C040000070F1810100B070D1010FB
:10B1C000080000808C4C38000000000000000000E7
:10B1D000000000000000000000000000000000006F
:10B1E00000000000000000000000000080E03008C7
:10B1F00004000000000000FEFF010000000000004D
:10B2000000000000030F1820400000040830E08018
:10B210000000000000000000000001FFFE00000030
:10B220000000004020180F03000000000000000094
:10B2300000000000C00000000000004266663C18EC
:10B24000FF183C666642000000000000030000009A
:10B25000000000000000000080000000000000105E
:10B2600010101010FF10101010100000000000004F
:10B2700003000000000000000000000000000000CB
:10B28000000000000000000000000000000000803E
:10B290008C4C38000000000000000000000000009E
:10B2A000000000000000001010101010101010100E
:10B2B000100000000000000000000000000000007E
:10B2C000000000000000000000000000000000007E
:10B2D00000000000000000001C1C1C00000000001A
:10B2E00000000000000000000000E0380C0000003A
:10B2F000000080701C03000000000060380E010098
:10B30000000000000000000080C060202060C080BD
:10B31000000000FEFF010000000001FFFE00000130
:10B32000070E181010180E0701000000808080C062
:10B33000E000000000000000000000FFFF0000002F
:10B34000000000001010101F1F10101000000080DF
:10B35000402020202060C0800000000303008040C7
:10B3600020381F070000001C1A1918181818181F79
:10B3700000000080C020202060C08000000000038A
:10B3800003001010182FE780000000070F101010A6
:10B3900010180F070000000000000000C0E0F000DF
:10B3A000000000C0B088868180FFFF808000000020
:10B3B00000000010101F1F1010000000E06060600F
:10B3C00060606060000000003F1008080818F0E0AE
:10B3D000000000070B101010101C0F0300000000ED
:10B3E00080C040202020E0C0000000FCFF211008A9
:10B3F000080818F0E0000001070C18101010080FE2
:10B4000003000000C0E06060606060E06000000079
:10B4100003000000E0180700000000000000001F0B
:10B420001F00000000000080C0602020202060C0BD
:10B4300080000087EF2C1818303068CF8300000799
:10B440000F0810101010180F07000000C0C02020B7
:10B450002020C0800000001F3F604040402010FFBF
:10B46000FE0000000C1C101010080F03000000006C
:10B470000000000000000000000000000000000EBE
:10B480000E0E0000000000000000001C1C1C00004C
:10B4900000000000000000000000000000000000AC
:10B4A0000000000C0C00000000000000000000582C
:10B4B0003800000000000000000000000080402074
:10B4C000100000001028448201000000000000006D
:10B4D000000000000102040810000000000000004D
:10B4E00000000000000000848484848484848484B8
:10B4F00084000000000000000000000000000000C8
:10B50000102040800000000000000000000000004B
:10B51000018244281000000010080402010000000D
:10B52000000000C020201010101030E0C000000308
:10B53000030000F010080C070300000000001C1CB2
:10B540001C0000000000000000C0406020202040DF
:10B55000C00000FCFF01F00E03C1FE03807F00016C
:10B56000070E08111110110904020000000080E00C
:10B57000E000000000000000807C4340477FF8802E
:10B58000000010181F1000000000131F1C1020E006
:10B59000E02020202060C080000000FFFF1010107D
:10B5A00010182FE78000101F1F1010101010180F18
:10B5B0000700000080C0402020202060E00000FC48
:10B5C000FF0100000000000001000001070E18103C
:10B5D00010100804030020E0E02020202040C0805C
:10B5E000000000FFFF000000000001FFFE00101F30
:10B5F0001F10101018080E07010020E0E020202086
:10B6000020202060800000FFFF101010107C000040
:10B610000000101F1F10101010101018060020E05E
:10B62000E020202020206060800000FFFF1010102C
:10B63000107C00000100101F1F100000000000001F
:10B640000000000080C06020202040E0000000FCDE
:10B65000FF0100004040C0C140400001070E18102B
:10B6600010100F0F000020E0E0200000000020E09C
:10B67000E02000FFFF101010101010FFFF00101F3F
:10B680001F1000000000101F1F100000202020E0ED
:10B69000E020202000000000000000FFFF0000006C
:10B6A000000000001010101F1F10101000000000FC
:10B6B0000000202020E0E02020200000000000000A
:10B6C00000FFFF0000000060E0808080C07F3F003E
:10B6D000000020E0E020000020A06020200000FF0B
:10B6E000FF30187CE3C000000000101F1F10000096
:10B6F00001131F1C181020E0E020000000000000D3
:10B70000000000FFFF000000000000000000101F0C
:10B710001F10101010101018060020E0E0E00000CC
:10B720000000E0E0E02000FF013FFEC0E01E01FF5E
:10B73000FF00101F1000031F0300101F1F1020E048
:10B74000E0C0000000000020E02000FF0003071C14
:10B7500078E08000FF00101F100000000000030FC1
:10B760001F00000080C060202060C080000000FE3C
:10B77000FF010000000000FFFE000001070E18108E
:10B7800010180C07010020E0E0202020202060C0DD
:10B79000800000FFFF2020202020301F0F00101FFE
:10B7A0001F100000000000000000000080C06020AA
:10B7B0002060C080000000FEFF010000000000FFCC
:10B7C000FE000001070E1111133C7C67210020E0F0
:10B7D000E0202020202060C0800000FFFF101030FB
:10B7E000F0D0080F0700101F1F10000000030F1CEF
:10B7F00010100080C060202020204040E0000007A2
:10B800000F0C1818303060E08100001F0C08101079
:10B810001010180F07008060202020E0E02020207A
:10B8200060800100000000FFFF0000000001000038
:10B830000000101F1F100000000020E0E0200000AA
:10B8400000000020E02000FFFF00000000000000DA
:10B85000FF0000070F1810101010100807002060DC
:10B86000E0E02000000020E060200000077FF8807A
:10B8700000807C03000000000000071F1C07000080
:10B88000000020E0E02000E0E0200020E0200007B1
:10B89000FFF8E01FFFFCE01F00000000031F030093
:10B8A000011F03000000002060E0A0000020E06015
:10B8B0002000000000038F7CF8C60100000000108B
:10B8C000181E130001171F1810002060E0E0200070
:10B8D000000020E06020000001073EF8E0180700AB
:10B8E000000000000010101F1F101000000000805A
:10B8F0006020202020A0E0E0200000000000C0F038
:10B900003E0F0300000000101C1F1710101010182D
:10B9100006000000000000FC040404040400000011
:10B92000000000FF00000000000000000000007F99
:10B93000404040404000000010E0000000000000D7
:10B94000000000000000031C6080000000000000F8
:10B950000000000000030C708000000004040404D8
:10B9600004FC0000000000000000000000FF0000D8
:10B970000000000040404040407F00000000000008
:10B980000010080C040C081000000000000000006B
:10B9900000000000000000000000000000000000A7
:10B9A0000000000000000000000000000000000097
:10B9B0000000000000000000000080808080808087
:10B9C000808080808080000000040408080000005F
:10B9D0000000000000000000000000000000000067
:10B9E0000000000000000000000000000000000057
:10B9F000000000000000000098D844642424FCF8F3
:10BA00000000000F1F18101010081F1F1018002032
:10BA1000E0F000000000000000000000FFFF180838
:10BA200004040CF8F00000001F0F18101010180F7D
:10BA3000030000000000000000000000000000E023
:10BA4000F8180404043C3800000000030F0C101028
:10BA50001010080600000000000000000020E0F0C8
:10BA6000000000E0F81C04040408FFFF00000003CD
:10BA70000F18101010081F0F080000000000000031
:10BA80000000000000000000E0F8484444444C7806
:10BA900070000000030F0C181010100804000000C4
:10BAA000000080C0602020E0C00000040404FFFF0C
:10BAB000040404040000000010101F1F10101000E8
:10BAC0000000000000000000000000000000000076
:10BAD00070F88C04048CF874040C007076CF8D8D93
:10BAE0008D89C87870000020E0F0000000000000A0
:10BAF00000000000FFFF08040404FCF80000001030
:10BB00001F1F100000101F1F100000000000006029
:10BB10006000000000000000040404FCFC000000C1
:10BB2000000000001010101F1F1010100000000077
:10BB3000000000000060600000000000000004043D
:10BB400004FCFC0000000000C0C08080C07F3F00FB
:10BB500000000020E0F000000000000000000000F5
:10BB6000FFFF80C0F41C0404000000101F1F110020
:10BB7000031F1C1010000000202020E0F000000037
:10BB800000000000000000FFFF00000000000000B7
:10BB90001010101F1F101010000000000000000007
:10BBA00000000000000004FCFC0804FCFC0804FC8D
:10BBB000FC00101F1F10001F1F10001F1F1000008F
:10BBC000000000000000000000000004FCFC080869
:10BBD0000404FCF8000000101F1F100000101F1FBD
:10BBE000100000000000000000000000000000E065
:10BBF000F0180C04040C18F0E00000030F0C1010F7
:10BC000010100C0F030000000000000000000000F6
:10BC100000000004FCFC080404040CF8F0000080A0
:10BC2000FFFF889010101C0F0300000000000000B0
:10BC300000000000000000E0F81C04040408F8FC08
:10BC4000000000030F1810109088FFFF8000000014
:10BC500000000000000000000000040404FCFC10D0
:10BC60000804040C0C001010101F1F10101000000E
:10BC700000000000000000000000000000000000C4
:10BC80003078CCC48484840C1C0000001E18101072
:10BC90001011190F06000000000000C00000000095
:10BCA000000000040404FFFF04040400000000007E
:10BCB00000000F1F1010100C00000000000000001A
:10BCC0000000000000000004FCFE00000004FCFE78
:10BCD000000000000F1F181010081F0F08000000C0
:10BCE0000000000000000000000000040C3CFCC448
:10BCF0000000C43C0C0400000000010F1E0E0100F7
:10BD00000000000000000000000000000000043CF3
:10BD1000FCC400E47CFC84807C040000071F070056
:10BD200000071F07000000000000000000000000E6
:10BD300000000004041C7CE4C0341C040400001057
:10BD4000101C1601131F1C1810000000000000003A
:10BD500000000000000000040C3CFCC400C43C04D3
:10BD600004000000C080C1370E0100000000000088
:10BD70000000000000000000000000001C0404C4DB
:10BD8000F47C1C0400000000101C1F171110101878
:10BD90000E0000000000000000F80C04000000008D
:10BDA0000000001028EF000000000000000000006C
:10BDB000003F60400000000000000000FF000000A5
:10BDC0000000000000000000FF0000000000000074
:10BDD00000000000FF00000000000000040CF8005C
:10BDE00000000000000000000000EF28100000002C
:10BDF0000000000040603F0000000000000000184C
:10BE00000602020408102020300800000000000094
:10BE10000000000000000000000000000000000022
:10BE200000003939365F3939360000010100010060
:10BE300000010100000100010100010000010001FA
:10BE400001000001010001000001010000010001EA
:10BE500001000001010001000001000101000100DA
:10BE600000010100000100010100010000010001CA
:10BE700001000001010001000001000101000100BA
:10BE800000010100000100010100000101000100AA
:10BE9000000101000001000101000100000100019A
:10BEA000010000010100010000010100000100018A
:10BEB000010000010100010000010001010001007A
:10BEC000000101000001000101000001010001006A
:10BED000000101000001000101000100000100015A
:10BEE000010000010100010000010001010001004A
:10BEF000000101000001000101000100000100013A
:10BF00000100000101000100000101000001000129
:10BF10000100000101000100000100010100010019
:10BF200000010100000100010100000012010002F7
:10BF3000EF0201408304110000010102030100002F
:10BF40000902820004010080640904000002030069
:10BF50000000092111010001221800070582034099
:10BF6000000107050203400001080B010202020163
:10BF7000000904010001020201000524001001056E
:10BF8000240100010424020205240600010705889B
:10BF90000310000109040200020A000000070581E5
:10BFA000022000010705010220000109040300022C
:10BFB00008065000070584024000010705040240FE
:10BFC00000010000040309040E034B0053005F004E
:10BFD000440049005900000022034B005300200098
:10BFE000390039003600200043004D00530049005D
:10BFF00053002D0044004100500000001803390098
:10C00000390036005F003900390036005F00390022
:10C0100039003600C4BF0008C8BF0008D8BF0008F8
:10C02000FCBF00080600FF0901A101090215002557
:10C03000FF75089540810209039102C0402040002D
:10C0400040402040004000002CBF000840BF0008D6
:10C0500014C0000804000000119400085D9400085A
:10C06000C9940008459400087D970008B19700081E
:10C07000C19800089B970008CB9800085D990008BC
:10C08000D59900084399000800000000010203044C
:10C0900000BE0AE00D782D0668400824400000D359
:10C0A0005840641EFAD1491C521E002AF2D1704732
:10C0B0004648454941604649416000210160C168E8
:10C0C00014221143C160C069400706D44248414967
:10C0D00001600621416041498160002070473B4872
:10C0E00001698022114301610020704730B5374853
:10C0F000C16814242143C1600169042529430161F9
:10C1000001694022114301613549334A00E0116061
:10C11000C368DB07FBD10169A9430161C168214202
:10C1200004D0C1682143C160012030BD002030BD72
:10C1300030B52649CA6814231A43CA600A69022422
:10C1400022430A614861086940221043086124487B
:10C15000214A00E01060CD68ED07FBD10869A043DB
:10C160000861C868184003D0C8681843C860012037
:10C1700030BDF0B5154D491C4908EB684900042451
:10C180002343EB601427164C1AE02B690126334336
:10C190002B6113880380104B00E01C60EE68F607EB
:10C1A000FBD12B695B085B002B61EB683B4204D041
:10C1B000E8683843E8600120F0BD801C921C891EAD
:10C1C0000029E2D10020F0BD230167450020024094
:10C1D000AB89EFCD5555000000300040FF0F000047
:10C1E000AAAA000000000000210000204F0000204B
:10C1F0005D000020A1000020E300002001000020DD
:10C20000000C002000100020580100200000002039
:10C210005801000090C000080004000000BE0AE0C1
:10C220000D782D0668400824400000D35840641E55
:10C23000FAD1491C521E002AF2D1704710B50346AC
:10C240000020444C206044486060444860602046C0
:10C25000C06910F0040F08D145F25550404C2060E1
:10C260000620606040F6FF70A060002010BD01460F
:10C270003848006940F08000364A1061002070475D
:10C280003448006940F004003249086108460069FA
:10C2900040F04000086103E04AF6AA2030490860F7
:10C2A0002C48C06810F0010FF6D12A48006920F030
:10C2B00004002849086100207047014625480069AC
:10C2C00040F00200234A106110464161006940F0CD
:10C2D0004000106103E04AF6AA20214A10601D4880
:10C2E000C06810F0010FF6D11A48006920F0020072
:10C2F000184A10610020704710B50346481C20F012
:10C30000010122E01348006940F00100114C206156
:10C310001088188000BF0F48C06810F0010FFAD1D4
:10C320000C48006920F001000A4C20612046C068DA
:10C3300010F0140F06D02046C06840F01400E060F2
:10C34000012010BD9B1C921C891E0029DAD10020FF
:10C35000F7E700000020024023016745AB89EFCDDD
:10C3600000300040000000002100002053000020A9
:10C37000650000209F000020DD000020010000205B
:10C38000000C00200010002000040020000000200D
:10C390004C0100001CC200080004000000BE0AE0BE
:10C3A0000D782D0668400824400000D35840641ED4
:10C3B000FAD1491C521E002AF2D170474B484A4A12
:10C3C00042604B4941608260816000210160C16828
:10C3D00014221143C160C069C00506D446484549CE
:10C3E00001600621416045498160002070473F4857
:10C3F0000169421591430161016980221143016184
:10C400000020704770B53948C16814231943C160D2
:10C410000169202421430161016940221143016126
:10C420003749354A00E01160C568ED07FBD1056961
:10C43000A543056105691024254305612D4D314E45
:10C440005535358000E01160C568ED07FBD1016905
:10C45000A1430161C168194204D0C1681943C16098
:10C46000012070BD002070BD10B520480169202456
:10C4700021430161016940221143016120491E4AA3
:10C4800000E01160C368DB07FBD10169A1430161D2
:10C49000002010BD01207047F0B5491C4908490033
:10C4A000124D1026164B1AE02C6934432C61148867
:10C4B0000480114C00E02360EF68FF07FBD12C697A
:10C4C000B4432C61EC6814273C4205D0E968142081
:10C4D0000143E9600120F0BD801C921C891E0029E7
:10C4E000E2D10020F0BD000023016745002002409A
:10C4F000AB89EFCD5555000000300040FF0F000024
:10C50000AAAA000000F8FF1F000000002100002080
:10C510005300002069000020CD000020FD00002015
:10C5200001000020000C002000100020000400206A
:10C5300000000020700100009CC3000810000000F3
:10C5400000BE0AE00D782D0668400824400000D3A4
:10C550005840641EFAD1491C521E002AF2D170477D
:10C560000003000E202802D34009001D7047102848
:10C5700002D30009C01C7047800870472548244931
:10C5800041602549416000210160C168F0221143EA
:10C59000C1604069800606D4214820490160062117
:10C5A000416020498160002070471A4801694205B6
:10C5B00011430161002070470020704770B5154D90
:10C5C000C91C8908EB688900F0263343EB6000231F
:10C5D0002B61154B17E02C691C432C611468046017
:10C5E000EC68E403FCD42C69640864002C61EC68FA
:10C5F0002406240F04D0E8683043E860012070BDB1
:10C60000001D121D091F0029E5D1002070BD00008A
:10C6100023016745003C0240AB89EFCD5555000032
:10C6200000300040FF0F0000010200000000000089
:10C630003D0000206B0000201F000020790000203A
:10C640007D00002001000020000C002000100020D0
:10C650000004002000000020F000000040C5000899
:10C660001002000000BE0AE00D782D066840082484
:10C67000400000D35840641EFAD1491C521E002AC3
:10C68000F2D17047BFF34F8F70470003000E402870
:10C6900002D38009001D7047C008704731483049F7
:10C6A000816031498160C168F0221143C1604069F5
:10C6B000800606D42E482D490160062141602D498F
:10C6C0008160002070472748416901221143416180
:10C6D000002070472348C268F0210A43C260264AFE
:10C6E0008261264A4261426902231A434261C2685A
:10C6F0001206120F04D0C2680A43C26001207047BC
:10C70000002070470020704710B5164806CAC4685C
:10C71000F0231C43C4608261194A1140891C4161A5
:10C72000C168C903FCD4C1680906090F04D0C168F7
:10C730001943C160012010BD002010BD70B5094C27
:10C7400013680F4E5268656933403540AB4203D1E0
:10C75000A369934201D0401C70BD401870BD000019
:10C760003B2A1908003C02407F6E5D4C5555000085
:10C7700000300040FF0F000080004000FCAAFFC016
:10C78000FCFFFFC000000000390000206300002013
:10C7900071000020A1000020A50000200100002061
:10C7A000000C0020001000200004002000000020E9
:10C7B0002401000064C600080800000000BE0AE072
:10C7C0000D782D0668400824400000D35840641EB0
:10C7D000FAD1491C521E002AF2D17047BFF34F8F85
:10C7E000704710B503464FF48070ED4C2060ED4863
:10C7F000006840F00700EB4C2060EB48606100BF30
:10C80000E848006900F004000028F9D1E748E54C49
:10C810006060E7486060E448E64C206000BFE5489F
:10C82000001F006800F004000028F8D1DF48E14C48
:10C83000103C2060DE48DB4CC4F80401002010BD31
:10C840000146D848C06840F00100D64AD060D948B7
:10C850000838006840F00100C2F80C010020704761
:10C86000D148D049486100BFCE48006900F00400BB
:10C870000028F9D1CC48CF49086000BFCD48001F3F
:10C88000006800F004000028F8D100BFC548006926
:10C8900000F004000028F9D1C248C06820F0300040
:10C8A000C049C8600846C06840F00800C860084633
:10C8B000C06840F08000C86000BFBA48006900F05E
:10C8C00004000028F9D1B748C06820F00800B54935
:10C8D000C86000BFB748001F006800F004000028CF
:10C8E000F8D1B4480838006820F03000AD49C1F8EC
:10C8F0000C010846D0F80C0140F00800C1F80C010A
:10C900000846D0F80C0140F08000C1F80C0100BFCF
:10C91000A848001F006800F004000028F8D1A548CE
:10C920000838006820F008009E49C1F80C0100207A
:10C93000704710B50146C1F34342B1F1006F37D3E0
:10C94000B1F1016F34D297484069974B1843954B2A
:10C95000586100BF9348006900F004000028F9D135
:10C960009048C06847F6307398438E4BD86018469D
:10C97000C068042343EA022318438A4BD860184650
:10C98000C06840F08000D86000BF8648006900F0B1
:10C9900004000028F9D18348C06820F00400814BCE
:10C9A000D8601846006900F00100E8B3012010BD0E
:10C9B000804800687C4B18437A4BC3F8140100BFD1
:10C9C0007C48001F006800F004000028F8D1794876
:10C9D0000838006847F630739843724BC3F80C016F
:10C9E000744808380068A2F10803042444EA0323C9
:10C9F00018436C4BC3F80C011846D0F80C0140F0FA
:10CA00008000C3F80C0100BF6A48001F006800F0F6
:10CA100004000028F8D167480838006820F00400B6
:10CA2000604BC3F80C0100E007E06248001F00689B
:10CA300000F0010008B10120B9E70020B7E7F0B528
:10CA400003460C461646194635460022B3F1006FE0
:10CA50000DD3B3F1016F0AD200BF5248006900F054
:10CA600004000028F9D150484E4F78610AE000BF19
:10CA70005048001F006800F004000028F8D14A4820
:10CA80004C4F386087E0B3F1006F0CD3B3F1016F06
:10CA900009D24448C06847F63077B843414FF86040
:10CAA0000220F8600CE043480838006847F6307709
:10CAB000B8433C4FC7F80C0102203E4F083F386096
:10CAC000202C0CD3002206E02F6868680F604860B5
:10CAD00008350831521C042AF6DB203C13E0002202
:10CAE00004E015F8010B01F8010B521CA242F8D327
:10CAF000002203E0FF2001F8010B521CC4F12000CA
:10CB00009042F7D80024FFF769FEB3F1006F0AD313
:10CB1000B3F1016F07D200BF2248006900F00400A2
:10CB20000028F9D107E000BF2248001F006800F08C
:10CB300004000028F8D11B4800690020B0B1B3F10F
:10CB4000006F09D3B3F1016F06D21648C06820F018
:10CB50000200144FF86007E016480838006820F01B
:10CB60000200104FC7F80C010120F0BDB3F1006FB7
:10CB700009D3B3F1016F06D20A48C06820F0020061
:10CB8000084FF86007E00B480838006820F0020002
:10CB9000044FC7F80C01002C7FF475AF0020E4E7C8
:10CBA00094450258002000520000EF0F2301674512
:10CBB000AB89EFCD142100520000000027000020B7
:10CBC00085000020A50000207701002083020020BE
:10CBD00001000020000C00200010002000040020B4
:10CBE0000000002000040000BCC700080004000092
:10CBF00001000400100040000001000200000100DC
:10CC000002000400080010002000000007000000DF
:10CC1000000000000000000000000000DDDDDDDDA0
:10CC2000DCBBBBDDDDDDDDDDDDDDDDDD98888888BD
:10CC30008888888877777777778888888555555664
:10CC400066666666666666666668888883333332BB
:10CC500022222222222222222228888D260000003F
:10CC6000312E53544D33324630585800322E5354DF
:10CC70004D33324631585800332E53544D333246DB
:10CC800033585800342E53544D33324634585800DC
:10CC9000352E53544D33324637585800362E5354A0
:10CCA0004D33324837585800C8CC000800000020E7
:10CCB000E4030000FC0900085CCD0008E403002048
:10CCC000343D000038610008813A0104120132103D
:10CCD0001360CC1B086C041A78041A84041A90049C
:10CCE0001A9C041A5C04811241D317EFA204294C48
:10CCF000811368C024080202136D7B1B088904C1DC
:10CD00001364393320401A242441B2181A581414D9
:10CD100001010813CD621B08D9041AA42C32201A71
:10CD2000C90C01241A78409A0494133982140849D2
:10CD3000811B087D0401FF01FF0146225C1B20943A
:10CD400004411AD408320413380314209D7B027165
:0CCD5000082BA24A7F11320102131000D0
:0400000508000131BD
:00000001FF
